{
  "contractName": "SimpleBuildingOwnership",
  "abi": [
    {
      "inputs": [],
      "payable": false,
      "stateMutability": "nonpayable",
      "type": "constructor"
    },
    {
      "anonymous": false,
      "inputs": [
        {
          "indexed": false,
          "internalType": "uint256",
          "name": "index",
          "type": "uint256"
        },
        {
          "indexed": false,
          "internalType": "uint256",
          "name": "amountOfParts",
          "type": "uint256"
        },
        {
          "indexed": false,
          "internalType": "address",
          "name": "fillPartsAuthority",
          "type": "address"
        }
      ],
      "name": "NewBuilding",
      "type": "event"
    },
    {
      "constant": false,
      "inputs": [
        {
          "internalType": "bytes32",
          "name": "",
          "type": "bytes32"
        },
        {
          "internalType": "string",
          "name": "result",
          "type": "string"
        }
      ],
      "name": "__callback",
      "outputs": [],
      "payable": false,
      "stateMutability": "nonpayable",
      "type": "function"
    },
    {
      "constant": false,
      "inputs": [
        {
          "internalType": "bytes32",
          "name": "_myid",
          "type": "bytes32"
        },
        {
          "internalType": "string",
          "name": "_result",
          "type": "string"
        },
        {
          "internalType": "bytes",
          "name": "_proof",
          "type": "bytes"
        }
      ],
      "name": "__callback",
      "outputs": [],
      "payable": false,
      "stateMutability": "nonpayable",
      "type": "function"
    },
    {
      "constant": true,
      "inputs": [
        {
          "internalType": "uint256",
          "name": "_buildingPartId",
          "type": "uint256"
        }
      ],
      "name": "isAddressValidated",
      "outputs": [
        {
          "internalType": "bool",
          "name": "",
          "type": "bool"
        }
      ],
      "payable": false,
      "stateMutability": "view",
      "type": "function"
    },
    {
      "constant": false,
      "inputs": [
        {
          "internalType": "string",
          "name": "_name",
          "type": "string"
        },
        {
          "internalType": "uint256",
          "name": "_partsCount",
          "type": "uint256"
        }
      ],
      "name": "addBuilding",
      "outputs": [
        {
          "internalType": "uint256",
          "name": "",
          "type": "uint256"
        }
      ],
      "payable": false,
      "stateMutability": "nonpayable",
      "type": "function"
    },
    {
      "constant": false,
      "inputs": [
        {
          "internalType": "uint256",
          "name": "_buildingIndex",
          "type": "uint256"
        },
        {
          "internalType": "uint256",
          "name": "_buildingPartIndex",
          "type": "uint256"
        },
        {
          "internalType": "string",
          "name": "_buildingPartStreet",
          "type": "string"
        },
        {
          "internalType": "string",
          "name": "_buildingPartNumber",
          "type": "string"
        },
        {
          "internalType": "string",
          "name": "_buildingPartPostalCode",
          "type": "string"
        },
        {
          "internalType": "string",
          "name": "_buildingPartCity",
          "type": "string"
        },
        {
          "internalType": "address",
          "name": "_buildingPartOwner",
          "type": "address"
        }
      ],
      "name": "fillBuildingPart",
      "outputs": [
        {
          "internalType": "uint256",
          "name": "",
          "type": "uint256"
        }
      ],
      "payable": true,
      "stateMutability": "payable",
      "type": "function"
    },
    {
      "constant": false,
      "inputs": [
        {
          "internalType": "uint256",
          "name": "_buildingPartId",
          "type": "uint256"
        },
        {
          "internalType": "address",
          "name": "_newOwner",
          "type": "address"
        }
      ],
      "name": "transferBuildingPartOwnership",
      "outputs": [],
      "payable": false,
      "stateMutability": "nonpayable",
      "type": "function"
    },
    {
      "constant": true,
      "inputs": [
        {
          "internalType": "uint256",
          "name": "_index",
          "type": "uint256"
        }
      ],
      "name": "getBuilding",
      "outputs": [
        {
          "internalType": "string",
          "name": "",
          "type": "string"
        },
        {
          "internalType": "uint256[]",
          "name": "",
          "type": "uint256[]"
        },
        {
          "internalType": "address",
          "name": "",
          "type": "address"
        }
      ],
      "payable": false,
      "stateMutability": "view",
      "type": "function"
    },
    {
      "constant": true,
      "inputs": [
        {
          "internalType": "uint256",
          "name": "_id",
          "type": "uint256"
        }
      ],
      "name": "getBuildingPart",
      "outputs": [
        {
          "internalType": "address",
          "name": "",
          "type": "address"
        },
        {
          "internalType": "string",
          "name": "",
          "type": "string"
        },
        {
          "internalType": "string",
          "name": "",
          "type": "string"
        },
        {
          "internalType": "string",
          "name": "",
          "type": "string"
        },
        {
          "internalType": "string",
          "name": "",
          "type": "string"
        }
      ],
      "payable": false,
      "stateMutability": "view",
      "type": "function"
    },
    {
      "constant": false,
      "inputs": [],
      "name": "destruct",
      "outputs": [],
      "payable": false,
      "stateMutability": "nonpayable",
      "type": "function"
    }
  ],
  "bytecode": "0x608060405234801561001057600080fd5b5033600560006101000a81548173ffffffffffffffffffffffffffffffffffffffff021916908373ffffffffffffffffffffffffffffffffffffffff160217905550613563806100616000396000f3fe6080604052600436106100865760003560e01c8063694ad64311610059578063694ad643146103c3578063957f6059146105ee5780639dfd8b02146108b6578063cd91fbec146109e5578063fa9533bc14610a4057610086565b806305cdfebb1461008b57806327dc297e146101715780632b68b9c61461024357806338bbfa501461025a575b600080fd5b34801561009757600080fd5b5061015b600480360360408110156100ae57600080fd5b81019080803590602001906401000000008111156100cb57600080fd5b8201836020820111156100dd57600080fd5b803590602001918460018302840111640100000000831117156100ff57600080fd5b91908080601f016020809104026020016040519081016040528093929190818152602001838380828437600081840152601f19601f82011690508083019250505050505050919291929080359060200190929190505050610a93565b6040518082815260200191505060405180910390f35b34801561017d57600080fd5b506102416004803603604081101561019457600080fd5b8101908080359060200190929190803590602001906401000000008111156101bb57600080fd5b8201836020820111156101cd57600080fd5b803590602001918460018302840111640100000000831117156101ef57600080fd5b91908080601f016020809104026020016040519081016040528093929190818152602001838380828437600081840152601f19601f820116905080830192505050505050509192919290505050610c32565b005b34801561024f57600080fd5b50610258610cfe565b005b34801561026657600080fd5b506103c16004803603606081101561027d57600080fd5b8101908080359060200190929190803590602001906401000000008111156102a457600080fd5b8201836020820111156102b657600080fd5b803590602001918460018302840111640100000000831117156102d857600080fd5b91908080601f016020809104026020016040519081016040528093929190818152602001838380828437600081840152601f19601f8201169050808301925050505050505091929192908035906020019064010000000081111561033b57600080fd5b82018360208201111561034d57600080fd5b8035906020019184600183028401116401000000008311171561036f57600080fd5b91908080601f016020809104026020016040519081016040528093929190818152602001838380828437600081840152601f19601f820116905080830192505050505050509192919290505050610d93565b005b3480156103cf57600080fd5b506103fc600480360360208110156103e657600080fd5b8101908080359060200190929190505050610db6565b604051808673ffffffffffffffffffffffffffffffffffffffff1673ffffffffffffffffffffffffffffffffffffffff16815260200180602001806020018060200180602001858103855289818151815260200191508051906020019080838360005b8381101561047a57808201518184015260208101905061045f565b50505050905090810190601f1680156104a75780820380516001836020036101000a031916815260200191505b50858103845288818151815260200191508051906020019080838360005b838110156104e05780820151818401526020810190506104c5565b50505050905090810190601f16801561050d5780820380516001836020036101000a031916815260200191505b50858103835287818151815260200191508051906020019080838360005b8381101561054657808201518184015260208101905061052b565b50505050905090810190601f1680156105735780820380516001836020036101000a031916815260200191505b50858103825286818151815260200191508051906020019080838360005b838110156105ac578082015181840152602081019050610591565b50505050905090810190601f1680156105d95780820380516001836020036101000a031916815260200191505b50995050505050505050505060405180910390f35b6108a0600480360360e081101561060457600080fd5b8101908080359060200190929190803590602001909291908035906020019064010000000081111561063557600080fd5b82018360208201111561064757600080fd5b8035906020019184600183028401116401000000008311171561066957600080fd5b91908080601f016020809104026020016040519081016040528093929190818152602001838380828437600081840152601f19601f820116905080830192505050505050509192919290803590602001906401000000008111156106cc57600080fd5b8201836020820111156106de57600080fd5b8035906020019184600183028401116401000000008311171561070057600080fd5b91908080601f016020809104026020016040519081016040528093929190818152602001838380828437600081840152601f19601f8201169050808301925050505050505091929192908035906020019064010000000081111561076357600080fd5b82018360208201111561077557600080fd5b8035906020019184600183028401116401000000008311171561079757600080fd5b91908080601f016020809104026020016040519081016040528093929190818152602001838380828437600081840152601f19601f820116905080830192505050505050509192919290803590602001906401000000008111156107fa57600080fd5b82018360208201111561080c57600080fd5b8035906020019184600183028401116401000000008311171561082e57600080fd5b91908080601f016020809104026020016040519081016040528093929190818152602001838380828437600081840152601f19601f820116905080830192505050505050509192919290803573ffffffffffffffffffffffffffffffffffffffff1690602001909291905050506110e2565b6040518082815260200191505060405180910390f35b3480156108c257600080fd5b506108ef600480360360208110156108d957600080fd5b8101908080359060200190929190505050611459565b6040518080602001806020018473ffffffffffffffffffffffffffffffffffffffff1673ffffffffffffffffffffffffffffffffffffffff168152602001838103835286818151815260200191508051906020019080838360005b8381101561096557808201518184015260208101905061094a565b50505050905090810190601f1680156109925780820380516001836020036101000a031916815260200191505b50838103825285818151815260200191508051906020019060200280838360005b838110156109ce5780820151818401526020810190506109b3565b505050509050019550505050505060405180910390f35b3480156109f157600080fd5b50610a3e60048036036040811015610a0857600080fd5b8101908080359060200190929190803573ffffffffffffffffffffffffffffffffffffffff1690602001909291905050506115e0565b005b348015610a4c57600080fd5b50610a7960048036036020811015610a6357600080fd5b81019080803590602001909291905050506116a9565b604051808215151515815260200191505060405180910390f35b60006006604051806060016040528085815260200184604051908082528060200260200182016040528015610ad75781602001602082028038833980820191505090505b5081526020013373ffffffffffffffffffffffffffffffffffffffff16815250908060018154018082558091505090600182039060005260206000209060030201600090919290919091506000820151816000019080519060200190610b3e929190613301565b506020820151816001019080519060200190610b5b929190613381565b5060408201518160020160006101000a81548173ffffffffffffffffffffffffffffffffffffffff021916908373ffffffffffffffffffffffffffffffffffffffff1602179055505050507f1da760a391045f9e73ee6cb692853deb3a02a500a3e38f6d6b4e6f7aa0215f026001600680549050038333604051808481526020018381526020018273ffffffffffffffffffffffffffffffffffffffff1673ffffffffffffffffffffffffffffffffffffffff168152602001935050505060405180910390a1600160068054905003905092915050565b610c3a611c2c565b73ffffffffffffffffffffffffffffffffffffffff163373ffffffffffffffffffffffffffffffffffffffff1614610c7157600080fd5b600081511115610cfa57806009826040518082805190602001908083835b60208310610cb25780518252602082019150602081019050602083039250610c8f565b6001836020036101000a03801982511681845116808217855250505050505090500191505090815260200160405180910390209080519060200190610cf89291906133ce565b505b5050565b600560009054906101000a900473ffffffffffffffffffffffffffffffffffffffff1673ffffffffffffffffffffffffffffffffffffffff163373ffffffffffffffffffffffffffffffffffffffff1614610d5857600080fd5b600560009054906101000a900473ffffffffffffffffffffffffffffffffffffffff1673ffffffffffffffffffffffffffffffffffffffff16ff5b6000801b600360008060001b815260200190815260200160002081905550505050565b600060608060608060006008600088815260200190815260200160002060000160009054906101000a900473ffffffffffffffffffffffffffffffffffffffff1690506060600860008981526020019081526020016000206001018054600181600116156101000203166002900480601f016020809104026020016040519081016040528092919081815260200182805460018160011615610100020316600290048015610ea55780601f10610e7a57610100808354040283529160200191610ea5565b820191906000526020600020905b815481529060010190602001808311610e8857829003601f168201915b505050505090506060600860008a81526020019081526020016000206002018054600181600116156101000203166002900480601f016020809104026020016040519081016040528092919081815260200182805460018160011615610100020316600290048015610f585780601f10610f2d57610100808354040283529160200191610f58565b820191906000526020600020905b815481529060010190602001808311610f3b57829003601f168201915b505050505090506060600860008b81526020019081526020016000206003018054600181600116156101000203166002900480601f01602080910402602001604051908101604052809291908181526020018280546001816001161561010002031660029004801561100b5780601f10610fe05761010080835404028352916020019161100b565b820191906000526020600020905b815481529060010190602001808311610fee57829003601f168201915b505050505090506060600860008c81526020019081526020016000206004018054600181600116156101000203166002900480601f0160208091040260200160405190810160405280929190818152602001828054600181600116156101000203166002900480156110be5780601f10611093576101008083540402835291602001916110be565b820191906000526020600020905b8154815290600101906020018083116110a157829003601f168201915b50505050509050848484848499509950995099509950505050505091939590929450565b600087600681815481106110f257fe5b906000526020600020906003020160020160009054906101000a900473ffffffffffffffffffffffffffffffffffffffff1673ffffffffffffffffffffffffffffffffffffffff163373ffffffffffffffffffffffffffffffffffffffff161461115b57600080fd5b888860006006838154811061116c57fe5b9060005260206000209060030201600101828154811061118857fe5b90600052602060002001541461119d57600080fd5b6111db6040518060400160405280600381526020017f55524c0000000000000000000000000000000000000000000000000000000000815250611f49565b471015611233576040517f08c379a000000000000000000000000000000000000000000000000000000000815260040180806020018281038252602e8152602001806134b9602e913960400191505060405180910390fd5b61127c6040518060400160405280600381526020017f55524c00000000000000000000000000000000000000000000000000000000008152506112778b8b8b6122da565b612432565b506007600081548092919060010191905055506040518060a001604052808673ffffffffffffffffffffffffffffffffffffffff1681526020018a81526020018981526020018881526020018781525060086000600754815260200190815260200160002060008201518160000160006101000a81548173ffffffffffffffffffffffffffffffffffffffff021916908373ffffffffffffffffffffffffffffffffffffffff1602179055506020820151816001019080519060200190611344929190613301565b506040820151816002019080519060200190611361929190613301565b50606082015181600301908051906020019061137e929190613301565b50608082015181600401908051906020019061139b929190613301565b5090505060075460068c815481106113af57fe5b90600052602060002090600302016001018b815481106113cb57fe5b90600052602060002001819055506113e28b612978565b1561144657600060068c815481106113f657fe5b906000526020600020906003020160020160006101000a81548173ffffffffffffffffffffffffffffffffffffffff021916908373ffffffffffffffffffffffffffffffffffffffff1602179055505b6007549350505050979650505050505050565b606080600060606006858154811061146d57fe5b90600052602060002090600302016000018054600181600116156101000203166002900480601f0160208091040260200160405190810160405280929190818152602001828054600181600116156101000203166002900480156115125780601f106114e757610100808354040283529160200191611512565b820191906000526020600020905b8154815290600101906020018083116114f557829003601f168201915b5050505050905060606006868154811061152857fe5b906000526020600020906003020160010180548060200260200160405190810160405280929190818152602001828054801561158357602002820191906000526020600020905b81548152602001906001019080831161156f575b5050505050905060006006878154811061159957fe5b906000526020600020906003020160020160009054906101000a900473ffffffffffffffffffffffffffffffffffffffff1690508282829550955095505050509193909250565b816008600082815260200190815260200160002060000160009054906101000a900473ffffffffffffffffffffffffffffffffffffffff1673ffffffffffffffffffffffffffffffffffffffff163373ffffffffffffffffffffffffffffffffffffffff161461164f57600080fd5b816008600085815260200190815260200160002060000160006101000a81548173ffffffffffffffffffffffffffffffffffffffff021916908373ffffffffffffffffffffffffffffffffffffffff160217905550505050565b60006116b361344e565b600860008481526020019081526020016000206040518060a00160405290816000820160009054906101000a900473ffffffffffffffffffffffffffffffffffffffff1673ffffffffffffffffffffffffffffffffffffffff1673ffffffffffffffffffffffffffffffffffffffff168152602001600182018054600181600116156101000203166002900480601f0160208091040260200160405190810160405280929190818152602001828054600181600116156101000203166002900480156117c05780601f10611795576101008083540402835291602001916117c0565b820191906000526020600020905b8154815290600101906020018083116117a357829003601f168201915b50505050508152602001600282018054600181600116156101000203166002900480601f0160208091040260200160405190810160405280929190818152602001828054600181600116156101000203166002900480156118625780601f1061183757610100808354040283529160200191611862565b820191906000526020600020905b81548152906001019060200180831161184557829003601f168201915b50505050508152602001600382018054600181600116156101000203166002900480601f0160208091040260200160405190810160405280929190818152602001828054600181600116156101000203166002900480156119045780601f106118d957610100808354040283529160200191611904565b820191906000526020600020905b8154815290600101906020018083116118e757829003601f168201915b50505050508152602001600482018054600181600116156101000203166002900480601f0160208091040260200160405190810160405280929190818152602001828054600181600116156101000203166002900480156119a65780601f1061197b576101008083540402835291602001916119a6565b820191906000526020600020905b81548152906001019060200180831161198957829003601f168201915b50505050508152505090506060604051806020016040528060008152509050611af38260800151611ae56040518060400160405280600181526020017f2000000000000000000000000000000000000000000000000000000000000000815250611ad78660600151611ac96040518060400160405280600281526020017f2c20000000000000000000000000000000000000000000000000000000000000815250611abb8a60400151611aad6040518060400160405280600181526020017f2000000000000000000000000000000000000000000000000000000000000000815250611a9f8e602001518e612a4d90919063ffffffff16565b612a4d90919063ffffffff16565b612a4d90919063ffffffff16565b612a4d90919063ffffffff16565b612a4d90919063ffffffff16565b612a4d90919063ffffffff16565b612a4d90919063ffffffff16565b905060606009826040518082805190602001908083835b60208310611b2d5780518252602082019150602081019050602083039250611b0a565b6001836020036101000a03801982511681845116808217855250505050505090500191505090815260200160405180910390208054600181600116156101000203166002900480601f016020809104026020016040519081016040528092919081815260200182805460018160011615610100020316600290048015611bf45780601f10611bc957610100808354040283529160200191611bf4565b820191906000526020600020905b815481529060010190602001808311611bd757829003601f168201915b50505050509050611c0e8183612b9c90919063ffffffff16565b15611c1f5760019350505050611c27565b600093505050505b919050565b60008073ffffffffffffffffffffffffffffffffffffffff16600160009054906101000a900473ffffffffffffffffffffffffffffffffffffffff1673ffffffffffffffffffffffffffffffffffffffff161480611cb457506000611cb2600160009054906101000a900473ffffffffffffffffffffffffffffffffffffffff16612cf7565b145b15611cc557611cc36000612d02565b505b600160009054906101000a900473ffffffffffffffffffffffffffffffffffffffff1673ffffffffffffffffffffffffffffffffffffffff166338cc48316040518163ffffffff1660e01b8152600401602060405180830381600087803b158015611d2f57600080fd5b505af1158015611d43573d6000803e3d6000fd5b505050506040513d6020811015611d5957600080fd5b810190808051906020019092919050505073ffffffffffffffffffffffffffffffffffffffff166000809054906101000a900473ffffffffffffffffffffffffffffffffffffffff1673ffffffffffffffffffffffffffffffffffffffff1614611ea257600160009054906101000a900473ffffffffffffffffffffffffffffffffffffffff1673ffffffffffffffffffffffffffffffffffffffff166338cc48316040518163ffffffff1660e01b8152600401602060405180830381600087803b158015611e2757600080fd5b505af1158015611e3b573d6000803e3d6000fd5b505050506040513d6020811015611e5157600080fd5b81019080805190602001909291905050506000806101000a81548173ffffffffffffffffffffffffffffffffffffffff021916908373ffffffffffffffffffffffffffffffffffffffff1602179055505b6000809054906101000a900473ffffffffffffffffffffffffffffffffffffffff1673ffffffffffffffffffffffffffffffffffffffff1663c281d19e6040518163ffffffff1660e01b815260040160206040518083038186803b158015611f0957600080fd5b505afa158015611f1d573d6000803e3d6000fd5b505050506040513d6020811015611f3357600080fd5b8101908080519060200190929190505050905090565b60008073ffffffffffffffffffffffffffffffffffffffff16600160009054906101000a900473ffffffffffffffffffffffffffffffffffffffff1673ffffffffffffffffffffffffffffffffffffffff161480611fd157506000611fcf600160009054906101000a900473ffffffffffffffffffffffffffffffffffffffff16612cf7565b145b15611fe257611fe06000612d02565b505b600160009054906101000a900473ffffffffffffffffffffffffffffffffffffffff1673ffffffffffffffffffffffffffffffffffffffff166338cc48316040518163ffffffff1660e01b8152600401602060405180830381600087803b15801561204c57600080fd5b505af1158015612060573d6000803e3d6000fd5b505050506040513d602081101561207657600080fd5b810190808051906020019092919050505073ffffffffffffffffffffffffffffffffffffffff166000809054906101000a900473ffffffffffffffffffffffffffffffffffffffff1673ffffffffffffffffffffffffffffffffffffffff16146121bf57600160009054906101000a900473ffffffffffffffffffffffffffffffffffffffff1673ffffffffffffffffffffffffffffffffffffffff166338cc48316040518163ffffffff1660e01b8152600401602060405180830381600087803b15801561214457600080fd5b505af1158015612158573d6000803e3d6000fd5b505050506040513d602081101561216e57600080fd5b81019080805190602001909291905050506000806101000a81548173ffffffffffffffffffffffffffffffffffffffff021916908373ffffffffffffffffffffffffffffffffffffffff1602179055505b6000809054906101000a900473ffffffffffffffffffffffffffffffffffffffff1673ffffffffffffffffffffffffffffffffffffffff1663524f3889836040518263ffffffff1660e01b81526004018080602001828103825283818151815260200191508051906020019080838360005b8381101561224c578082015181840152602081019050612231565b50505050905090810190601f1680156122795780820380516001836020036101000a031916815260200191505b5092505050602060405180830381600087803b15801561229857600080fd5b505af11580156122ac573d6000803e3d6000fd5b505050506040513d60208110156122c257600080fd5b81019080805190602001909291905050509050919050565b6060806040518060200160405280600081525090506124256040518060400160405280601f81526020017f292e726573706f6e73652e646f63735b305d2e77656572676176656e61616d00815250612417856124096040518060400160405280600181526020017f2c000000000000000000000000000000000000000000000000000000000000008152506123fb8a6123ed6040518060400160405280600381526020017f25323000000000000000000000000000000000000000000000000000000000008152506123df8f6123d16040518060800160405280604881526020016134e7604891398e612a4d90919063ffffffff16565b612a4d90919063ffffffff16565b612a4d90919063ffffffff16565b612a4d90919063ffffffff16565b612a4d90919063ffffffff16565b612a4d90919063ffffffff16565b612a4d90919063ffffffff16565b9050809150509392505050565b60008073ffffffffffffffffffffffffffffffffffffffff16600160009054906101000a900473ffffffffffffffffffffffffffffffffffffffff1673ffffffffffffffffffffffffffffffffffffffff1614806124ba575060006124b8600160009054906101000a900473ffffffffffffffffffffffffffffffffffffffff16612cf7565b145b156124cb576124c96000612d02565b505b600160009054906101000a900473ffffffffffffffffffffffffffffffffffffffff1673ffffffffffffffffffffffffffffffffffffffff166338cc48316040518163ffffffff1660e01b8152600401602060405180830381600087803b15801561253557600080fd5b505af1158015612549573d6000803e3d6000fd5b505050506040513d602081101561255f57600080fd5b810190808051906020019092919050505073ffffffffffffffffffffffffffffffffffffffff166000809054906101000a900473ffffffffffffffffffffffffffffffffffffffff1673ffffffffffffffffffffffffffffffffffffffff16146126a857600160009054906101000a900473ffffffffffffffffffffffffffffffffffffffff1673ffffffffffffffffffffffffffffffffffffffff166338cc48316040518163ffffffff1660e01b8152600401602060405180830381600087803b15801561262d57600080fd5b505af1158015612641573d6000803e3d6000fd5b505050506040513d602081101561265757600080fd5b81019080805190602001909291905050506000806101000a81548173ffffffffffffffffffffffffffffffffffffffff021916908373ffffffffffffffffffffffffffffffffffffffff1602179055505b60008060009054906101000a900473ffffffffffffffffffffffffffffffffffffffff1673ffffffffffffffffffffffffffffffffffffffff1663524f3889856040518263ffffffff1660e01b81526004018080602001828103825283818151815260200191508051906020019080838360005b8381101561273757808201518184015260208101905061271c565b50505050905090810190601f1680156127645780820380516001836020036101000a031916815260200191505b5092505050602060405180830381600087803b15801561278357600080fd5b505af1158015612797573d6000803e3d6000fd5b505050506040513d60208110156127ad57600080fd5b8101908080519060200190929190505050905062030d403a02670de0b6b3a7640000018111156127e3576000801b915050612972565b6000809054906101000a900473ffffffffffffffffffffffffffffffffffffffff1673ffffffffffffffffffffffffffffffffffffffff1663adf59f9982600087876040518563ffffffff1660e01b8152600401808481526020018060200180602001838103835285818151815260200191508051906020019080838360005b8381101561287e578082015181840152602081019050612863565b50505050905090810190601f1680156128ab5780820380516001836020036101000a031916815260200191505b50838103825284818151815260200191508051906020019080838360005b838110156128e45780820151818401526020810190506128c9565b50505050905090810190601f1680156129115780820380516001836020036101000a031916815260200191505b50955050505050506020604051808303818588803b15801561293257600080fd5b505af1158015612946573d6000803e3d6000fd5b50505050506040513d602081101561295d57600080fd5b81019080805190602001909291905050509150505b92915050565b600060606006838154811061298957fe5b90600052602060002090600302016001018054806020026020016040519081016040528092919081815260200182805480156129e457602002820191906000526020600020905b8154815260200190600101908083116129d0575b50505050509050600080905060008090505b8251811015612a31576000838281518110612a0d57fe5b60200260200101511115612a245781806001019250505b80806001019150506129f6565b5081518114612a41576000612a44565b60015b92505050919050565b60608083905060608390506000815111612a6357fe5b606081518351016040519080825280601f01601f191660200182016040528015612a9c5781602001600182028038833980820191505090505b5090506060819050600080600091505b8551821015612b1a57858281518110612ac157fe5b602001015160f81c60f81b838280600101935081518110612ade57fe5b60200101907effffffffffffffffffffffffffffffffffffffffffffffffffffffffffffff1916908160001a9053508180600101925050612aac565b600091505b8451821015612b8d57848281518110612b3457fe5b602001015160f81c60f81b838280600101935081518110612b5157fe5b60200101907effffffffffffffffffffffffffffffffffffffffffffffffffffffffffffff1916908160001a9053508180600101925050612b1f565b82965050505050505092915050565b6000606083905060608390508051825114612bbc57600092505050612cf1565b60008090505b8251811015612ce957818181518110612bd757fe5b602001015160f81c60f81b7effffffffffffffffffffffffffffffffffffffffffffffffffffffffffffff1916838281518110612c1057fe5b602001015160f81c60f81b7effffffffffffffffffffffffffffffffffffffffffffffffffffffffffffff191614158015612ccb5750612c65828281518110612c5557fe5b602001015160f81c60f81b612d13565b7effffffffffffffffffffffffffffffffffffffffffffffffffffffffffffff1916612ca6848381518110612c9657fe5b602001015160f81c60f81b612d13565b7effffffffffffffffffffffffffffffffffffffffffffffffffffffffffffff191614155b15612cdc5760009350505050612cf1565b8080600101915050612bc2565b506001925050505b92915050565b6000813b9050919050565b6000612d0c612d90565b9050919050565b6000606160f81b827effffffffffffffffffffffffffffffffffffffffffffffffffffffffffffff191610158015612d715750607a60f81b827effffffffffffffffffffffffffffffffffffffffffffffffffffffffffffff191611155b15612d875760208260f81c0360f81b9050612d8b565b8190505b919050565b600080612db0731d3b2638a7cc9f2cb3d298a3da7a90b67e5506ed612cf7565b1115612e5257731d3b2638a7cc9f2cb3d298a3da7a90b67e5506ed600160006101000a81548173ffffffffffffffffffffffffffffffffffffffff021916908373ffffffffffffffffffffffffffffffffffffffff160217905550612e496040518060400160405280600b81526020017f6574685f6d61696e6e65740000000000000000000000000000000000000000008152506132e7565b600190506132e4565b6000612e7173c03a2615d5efaf5f49f60b7bb6583eaec212fdf1612cf7565b1115612f135773c03a2615d5efaf5f49f60b7bb6583eaec212fdf1600160006101000a81548173ffffffffffffffffffffffffffffffffffffffff021916908373ffffffffffffffffffffffffffffffffffffffff160217905550612f0a6040518060400160405280600c81526020017f6574685f726f707374656e3300000000000000000000000000000000000000008152506132e7565b600190506132e4565b6000612f3273b7a07bcf2ba2f2703b24c0691b5278999c59ac7e612cf7565b1115612fd45773b7a07bcf2ba2f2703b24c0691b5278999c59ac7e600160006101000a81548173ffffffffffffffffffffffffffffffffffffffff021916908373ffffffffffffffffffffffffffffffffffffffff160217905550612fcb6040518060400160405280600981526020017f6574685f6b6f76616e00000000000000000000000000000000000000000000008152506132e7565b600190506132e4565b6000612ff373146500cfd35b22e4a392fe0adc06de1a1368ed48612cf7565b11156130955773146500cfd35b22e4a392fe0adc06de1a1368ed48600160006101000a81548173ffffffffffffffffffffffffffffffffffffffff021916908373ffffffffffffffffffffffffffffffffffffffff16021790555061308c6040518060400160405280600b81526020017f6574685f72696e6b6562790000000000000000000000000000000000000000008152506132e7565b600190506132e4565b60006130b473a2998efd205fb9d4b4963afb70778d6354ad3a41612cf7565b11156131565773a2998efd205fb9d4b4963afb70778d6354ad3a41600160006101000a81548173ffffffffffffffffffffffffffffffffffffffff021916908373ffffffffffffffffffffffffffffffffffffffff16021790555061314d6040518060400160405280600a81526020017f6574685f676f65726c69000000000000000000000000000000000000000000008152506132e7565b600190506132e4565b6000613175736f485c8bf6fc43ea212e93bbf8ce046c7f1cb475612cf7565b11156131d957736f485c8bf6fc43ea212e93bbf8ce046c7f1cb475600160006101000a81548173ffffffffffffffffffffffffffffffffffffffff021916908373ffffffffffffffffffffffffffffffffffffffff160217905550600190506132e4565b60006131f87320e12a1f859b3feae5fb2a0a32c18f5a65555bbf612cf7565b111561325c577320e12a1f859b3feae5fb2a0a32c18f5a65555bbf600160006101000a81548173ffffffffffffffffffffffffffffffffffffffff021916908373ffffffffffffffffffffffffffffffffffffffff160217905550600190506132e4565b600061327b7351efaf4c8b3c9afbd5ab9f4bbc82784ab6ef8faa612cf7565b11156132df577351efaf4c8b3c9afbd5ab9f4bbc82784ab6ef8faa600160006101000a81548173ffffffffffffffffffffffffffffffffffffffff021916908373ffffffffffffffffffffffffffffffffffffffff160217905550600190506132e4565b600090505b90565b80600290805190602001906132fd9291906133ce565b5050565b828054600181600116156101000203166002900490600052602060002090601f016020900481019282601f1061334257805160ff1916838001178555613370565b82800160010185558215613370579182015b8281111561336f578251825591602001919060010190613354565b5b50905061337d9190613493565b5090565b8280548282559060005260206000209081019282156133bd579160200282015b828111156133bc5782518255916020019190600101906133a1565b5b5090506133ca9190613493565b5090565b828054600181600116156101000203166002900490600052602060002090601f016020900481019282601f1061340f57805160ff191683800117855561343d565b8280016001018555821561343d579182015b8281111561343c578251825591602001919060010190613421565b5b50905061344a9190613493565b5090565b6040518060a00160405280600073ffffffffffffffffffffffffffffffffffffffff168152602001606081526020016060815260200160608152602001606081525090565b6134b591905b808211156134b1576000816000905550600101613499565b5090565b9056fe706c656173652061646420736f6d652045544820746f20636f76657220666f7220746865207175657279206665656a736f6e2868747470733a2f2f67656f646174612e6e6174696f6e61616c67656f72656769737465722e6e6c2f6c6f63617469657365727665722f76332f737567676573743f713da265627a7a723158206c42d9b9d4cc3414e4a1aa826260e45b74c781895cd408f50cd073602518af4364736f6c63430005110032",
  "source": "//SPDX-License-Identifier: MIT\r\npragma solidity ^0.5.0;\r\n\r\nimport \"./provableAPI.sol\";\r\nimport \"solidity-util/lib/Strings.sol\";\r\nimport \"solidity-util/lib/Integers.sol\";\r\nimport \"solidity-util/lib/Addresses.sol\";\r\n\r\n/// @title A simple registration contract for ownership of a building part\r\n/// @author Bas Bastiaansen\r\n/// @notice This contract is made under education circumstances and is not meant for real-world use\r\ncontract SimpleBuildingOwnership is usingProvable {\r\n\r\n    using Strings for string;\r\n    using Integers for uint;\r\n    using Addresses for address;\r\n    using Addresses for address payable;\r\n  \r\n    event NewBuilding(uint index, uint amountOfParts, address fillPartsAuthority);\r\n\r\n    modifier onlyBuildingAuthority(uint _buildingIndex) {\r\n        require(msg.sender == buildings[_buildingIndex].fillPartsAuthority);\r\n        _;\r\n    }\r\n\r\n    modifier onlyEmptyBuildingPart(uint _buildingIndex, uint _buildingPartIndex) {\r\n        require(buildings[_buildingIndex].buildingPartIds[_buildingPartIndex] == 0);\r\n        _;\r\n    }\r\n\r\n    modifier onlyBuildingPartOwner(uint _buildingPartId) {\r\n        require(msg.sender == buildingParts[_buildingPartId].owner);\r\n        _;\r\n    }\r\n\r\n    modifier onlyDestructAuthority() {\r\n        require(msg.sender == destructAuthority);\r\n        _;\r\n    }\r\n\r\n    struct Building {\r\n        string name;\r\n        uint[] buildingPartIds;\r\n        address fillPartsAuthority;\r\n    }\r\n\r\n    struct BuildingPart {\r\n        address owner;\r\n        string streetName;\r\n        string houseNumber;\r\n        string postalCode;\r\n        string city;\r\n    }\r\n\r\n    address payable private destructAuthority;    \r\n    Building[] private buildings;\r\n    uint private totalBuildingPartsCount;\r\n    mapping(uint => BuildingPart) private buildingParts;\r\n    mapping(string => string) private validatedAddresses;\r\n\r\n    constructor() public {\r\n        destructAuthority = msg.sender;\r\n    }\r\n\r\n    function __callback(bytes32, string memory result) public {\r\n        if (msg.sender != provable_cbAddress()) revert();\r\n\r\n        if (bytes(result).length > 0) {\r\n            validatedAddresses[result] = result;\r\n        }\r\n    }\r\n\r\n    function isAddressValidated(uint _buildingPartId) public view returns (bool) {\r\n\r\n        BuildingPart memory buildingPart = buildingParts[_buildingPartId];\r\n        string memory addressString = \"\";\r\n        addressString = addressString.concat(buildingPart.streetName).concat(\" \").concat(buildingPart.houseNumber).concat(\", \").concat(buildingPart.postalCode).concat(\" \").concat(buildingPart.city);\r\n        string memory validatedAddress = validatedAddresses[addressString];\r\n        \r\n        if (addressString.compareToIgnoreCase(validatedAddress)) {\r\n            return true;\r\n        } else {\r\n            return false;\r\n        }\r\n    }\r\n\r\n    function addBuilding(string memory _name, uint _partsCount) public returns (uint) {\r\n        buildings.push(Building(_name, new uint[](_partsCount), msg.sender));\r\n        emit NewBuilding(buildings.length - 1, _partsCount, msg.sender);\r\n        return buildings.length - 1;\r\n    }\r\n\r\n    function getGeoRegisterUrl(string memory _buildingPartStreet, string memory _buildingPartNumber, \r\n        string memory _buildingPartPostalCode) private pure returns (string memory) {\r\n\r\n        string memory apiUrl = \"\";\r\n        apiUrl = apiUrl.concat(\"json(https://geodata.nationaalgeoregister.nl/locatieserver/v3/suggest?q=\").concat(_buildingPartStreet).concat(\"%20\").concat(_buildingPartNumber).concat(\",\").concat(_buildingPartPostalCode).concat(\").response.docs[0].weergavenaam\");\r\n        return apiUrl;\r\n    }\r\n\r\n    function fillBuildingPart(uint _buildingIndex, uint _buildingPartIndex, string memory _buildingPartStreet, string memory _buildingPartNumber, \r\n        string memory _buildingPartPostalCode, string memory _buildingPartCity, address _buildingPartOwner) public payable \r\n        onlyBuildingAuthority(_buildingIndex) onlyEmptyBuildingPart(_buildingIndex, _buildingPartIndex) returns (uint) {\r\n        \r\n        require (address(this).balance >= provable_getPrice(\"URL\"),\r\n            \"please add some ETH to cover for the query fee\");\r\n        provable_query(\"URL\", getGeoRegisterUrl(_buildingPartStreet, _buildingPartNumber, _buildingPartPostalCode));\r\n\r\n        totalBuildingPartsCount++;\r\n        buildingParts[totalBuildingPartsCount] = BuildingPart(_buildingPartOwner, _buildingPartStreet, _buildingPartNumber, _buildingPartPostalCode, _buildingPartCity);\r\n        buildings[_buildingIndex].buildingPartIds[_buildingPartIndex] = totalBuildingPartsCount;\r\n        if (allBuildingPartsFilled(_buildingIndex)) {\r\n            buildings[_buildingIndex].fillPartsAuthority = address(0);\r\n        }\r\n        return totalBuildingPartsCount;\r\n    }\r\n\r\n    function transferBuildingPartOwnership(uint _buildingPartId, address _newOwner) public onlyBuildingPartOwner(_buildingPartId) {\r\n        buildingParts[_buildingPartId].owner = _newOwner;\r\n    }\r\n  \r\n    function getBuilding(uint _index) public view returns(string memory, uint[] memory, address) {\r\n        string memory name = buildings[_index].name;\r\n        uint[] memory buildingPartIds = buildings[_index].buildingPartIds;\r\n        address fillPartsAuthority = buildings[_index].fillPartsAuthority;\r\n        return (name, buildingPartIds, fillPartsAuthority);\r\n    }\r\n\r\n    function getBuildingPart(uint _id) public view returns(address, string memory, string memory, string memory, string memory) {\r\n        address owner = buildingParts[_id].owner;\r\n        string memory streetName = buildingParts[_id].streetName;\r\n        string memory houseNumber = buildingParts[_id].houseNumber;\r\n        string memory postalCode = buildingParts[_id].postalCode;\r\n        string memory city = buildingParts[_id].city;\r\n        return (owner, streetName, houseNumber, postalCode, city);\r\n    }\r\n\r\n    function allBuildingPartsFilled(uint _buildingIndex) private view returns(bool) {\r\n        uint[] memory buildingPartIds = buildings[_buildingIndex].buildingPartIds;\r\n        uint amountOfBuildingPartsFilled = 0;\r\n        for(uint i = 0; i < buildingPartIds.length; i++) {\r\n            if (buildingPartIds[i] > 0) {\r\n                amountOfBuildingPartsFilled++;\r\n            }\r\n        }\r\n        return amountOfBuildingPartsFilled == buildingPartIds.length ? true : false;\r\n    }\r\n\r\n    function destruct() external onlyDestructAuthority {\r\n        selfdestruct(destructAuthority);\r\n    }\r\n}",
  "sourcePath": "E:/School/GitRepos/blockchain-minor-it/BC3_Bas/PD-13/truffle-environment/contracts/SimpleBuildingOwnership.sol",
  "compiler": {
    "name": "solc",
    "version": "0.5.17+commit.d19bba13.Emscripten.clang"
  },
  "schemaVersion": "3.3.2",
  "updatedAt": "2021-01-12T11:06:33.336Z",
  "devdoc": {
    "author": "Bas Bastiaansen",
    "methods": {},
    "title": "A simple registration contract for ownership of a building part"
  },
  "userdoc": {
    "methods": {},
    "notice": "This contract is made under education circumstances and is not meant for real-world use"
  }
}