{
  "contractName": "TestContract2",
  "abi": [
    {
      "inputs": [],
      "name": "contractOwner",
      "outputs": [
        {
          "internalType": "address",
          "name": "",
          "type": "address"
        }
      ],
      "stateMutability": "view",
      "type": "function",
      "constant": true
    },
    {
      "inputs": [],
      "name": "value",
      "outputs": [
        {
          "internalType": "uint256",
          "name": "",
          "type": "uint256"
        }
      ],
      "stateMutability": "view",
      "type": "function",
      "constant": true
    },
    {
      "inputs": [
        {
          "internalType": "uint256",
          "name": "v",
          "type": "uint256"
        }
      ],
      "name": "initialize",
      "outputs": [],
      "stateMutability": "nonpayable",
      "type": "function"
    },
    {
      "inputs": [
        {
          "internalType": "uint256",
          "name": "v",
          "type": "uint256"
        }
      ],
      "name": "set",
      "outputs": [],
      "stateMutability": "nonpayable",
      "type": "function"
    },
    {
      "inputs": [
        {
          "internalType": "address",
          "name": "newOwner",
          "type": "address"
        }
      ],
      "name": "updateOwner",
      "outputs": [],
      "stateMutability": "nonpayable",
      "type": "function"
    }
  ],
  "bytecode": "0x608060405234801561001057600080fd5b506103fa806100206000396000f3fe608060405234801561001057600080fd5b50600436106100575760003560e01c80633fa4f2451461005c57806360fe47b11461007a578063880cdc31146100a8578063ce606ee0146100ec578063fe4b84df14610120575b600080fd5b61006461014e565b6040518082815260200191505060405180910390f35b6100a66004803603602081101561009057600080fd5b8101908080359060200190929190505050610154565b005b6100ea600480360360208110156100be57600080fd5b81019080803573ffffffffffffffffffffffffffffffffffffffff16906020019092919050505061015e565b005b6100f4610253565b604051808273ffffffffffffffffffffffffffffffffffffffff16815260200191505060405180910390f35b61014c6004803603602081101561013657600080fd5b8101908080359060200190929190505050610279565b005b60335481565b8060338190555050565b600073ffffffffffffffffffffffffffffffffffffffff16603460009054906101000a900473ffffffffffffffffffffffffffffffffffffffff1673ffffffffffffffffffffffffffffffffffffffff161461020f57603460009054906101000a900473ffffffffffffffffffffffffffffffffffffffff1673ffffffffffffffffffffffffffffffffffffffff163373ffffffffffffffffffffffffffffffffffffffff161461020e57600080fd5b5b80603460006101000a81548173ffffffffffffffffffffffffffffffffffffffff021916908373ffffffffffffffffffffffffffffffffffffffff16021790555050565b603460009054906101000a900473ffffffffffffffffffffffffffffffffffffffff1681565b600060019054906101000a900460ff1680610298575061029761037f565b5b806102ae575060008054906101000a900460ff16155b610303576040517f08c379a000000000000000000000000000000000000000000000000000000000815260040180806020018281038252602e815260200180610397602e913960400191505060405180910390fd5b60008060019054906101000a900460ff161590508015610353576001600060016101000a81548160ff02191690831515021790555060016000806101000a81548160ff0219169083151502179055505b81603381905550801561037b5760008060016101000a81548160ff0219169083151502179055505b5050565b6000803090506000813b905060008114925050509056fe436f6e747261637420696e7374616e63652068617320616c7265616479206265656e20696e697469616c697a6564a264697066735822122064b22ee550b552720c65d69ef8dc2a2b6bed7d31b342cb3b17f20306b128731964736f6c634300060c0033",
  "immutableReferences": {},
  "source": "import \"@openzeppelin/upgrades-core/contracts/Initializable.sol\";\r\n\r\n// SPDX-License-Identifier: MIT\r\npragma solidity >=0.4.22 <0.8.0;\r\n\r\n/// @title A test contract with useless functionality\r\n/// @author Bas Bastiaansen\r\n/// @notice This contract is made under education circumstances and is therefore not meant for real-world use\r\ncontract TestContract2 is Initializable {\r\n    \r\n    modifier onlyOwner() {\r\n        if (contractOwner != address(0)) {\r\n            require(msg.sender == contractOwner);\r\n        }\r\n        _;\r\n    }\r\n\r\n    uint256 public value;\r\n    address public contractOwner;\r\n\r\n    function initialize(uint256 v) public initializer {\r\n        value = v;\r\n    }\r\n\r\n    function set(uint256 v) public {\r\n        value = v;\r\n    }\r\n\r\n    function updateOwner(address newOwner) public onlyOwner {\r\n        contractOwner = newOwner;\r\n    }\r\n}\r\n",
  "sourcePath": "E:/School/GitRepos/blockchain-minor-it/BC3_Bas/PD-09/test-contract openzeppelin-upgrade truffle-environment/contracts/TestContract2.sol",
  "compiler": {
    "name": "solc",
    "version": "0.6.12+commit.27d51765.Emscripten.clang"
  },
  "schemaVersion": "3.3.2",
  "updatedAt": "2020-12-16T19:44:21.981Z",
  "networkType": "ethereum",
  "devdoc": {
    "author": "Bas Bastiaansen",
    "kind": "dev",
    "methods": {},
    "title": "A test contract with useless functionality",
    "version": 1
  },
  "userdoc": {
    "kind": "user",
    "methods": {},
    "notice": "This contract is made under education circumstances and is therefore not meant for real-world use",
    "version": 1
  }
}