{
  "contractName": "TestContract",
  "abi": [
    {
      "inputs": [],
      "name": "value",
      "outputs": [
        {
          "internalType": "uint256",
          "name": "",
          "type": "uint256"
        }
      ],
      "stateMutability": "view",
      "type": "function",
      "constant": true
    },
    {
      "inputs": [
        {
          "internalType": "uint256",
          "name": "v",
          "type": "uint256"
        }
      ],
      "name": "initialize",
      "outputs": [],
      "stateMutability": "nonpayable",
      "type": "function"
    },
    {
      "inputs": [
        {
          "internalType": "uint256",
          "name": "v",
          "type": "uint256"
        }
      ],
      "name": "set",
      "outputs": [],
      "stateMutability": "nonpayable",
      "type": "function"
    }
  ],
  "bytecode": "0x608060405234801561001057600080fd5b50610251806100206000396000f3fe608060405234801561001057600080fd5b50600436106100415760003560e01c80633fa4f2451461004657806360fe47b114610064578063fe4b84df14610092575b600080fd5b61004e6100c0565b6040518082815260200191505060405180910390f35b6100906004803603602081101561007a57600080fd5b81019080803590602001909291905050506100c6565b005b6100be600480360360208110156100a857600080fd5b81019080803590602001909291905050506100d0565b005b60335481565b8060338190555050565b600060019054906101000a900460ff16806100ef57506100ee6101d6565b5b80610105575060008054906101000a900460ff16155b61015a576040517f08c379a000000000000000000000000000000000000000000000000000000000815260040180806020018281038252602e8152602001806101ee602e913960400191505060405180910390fd5b60008060019054906101000a900460ff1615905080156101aa576001600060016101000a81548160ff02191690831515021790555060016000806101000a81548160ff0219169083151502179055505b8160338190555080156101d25760008060016101000a81548160ff0219169083151502179055505b5050565b6000803090506000813b905060008114925050509056fe436f6e747261637420696e7374616e63652068617320616c7265616479206265656e20696e697469616c697a6564a2646970667358221220c641e405a4bfc2a3f26d1c11413502e026aba509125e19e3170f44da1928f38264736f6c634300060c0033",
  "immutableReferences": {},
  "source": "import \"@openzeppelin/upgrades-core/contracts/Initializable.sol\";\r\n\r\n// SPDX-License-Identifier: MIT\r\npragma solidity >=0.4.22 <0.8.0;\r\n\r\ncontract TestContract is Initializable {\r\n\r\n    uint public value;\r\n\r\n    function initialize(uint v) public initializer {\r\n        value = v;\r\n    }   \r\n\r\n    function set(uint v) public {\r\n        value = v;  \r\n    }\r\n}",
  "sourcePath": "E:/School/GitRepos/blockchain-minor-it/BC3_Bas/PD-09/test-contract openzeppelin-upgrade truffle-environment/contracts/TestContract.sol",
  "compiler": {
    "name": "solc",
    "version": "0.6.12+commit.27d51765.Emscripten.clang"
  },
  "schemaVersion": "3.3.2",
  "updatedAt": "2020-12-16T19:44:21.980Z",
  "networkType": "ethereum",
  "devdoc": {
    "kind": "dev",
    "methods": {},
    "version": 1
  },
  "userdoc": {
    "kind": "user",
    "methods": {},
    "version": 1
  }
}