{
  "contractName": "SimpleBuildingOwnership",
  "abi": [
    {
      "anonymous": false,
      "inputs": [
        {
          "indexed": false,
          "internalType": "uint256",
          "name": "index",
          "type": "uint256"
        },
        {
          "indexed": false,
          "internalType": "uint256",
          "name": "amountOfParts",
          "type": "uint256"
        },
        {
          "indexed": false,
          "internalType": "address",
          "name": "fillPartsAuthority",
          "type": "address"
        }
      ],
      "name": "NewBuilding",
      "type": "event"
    },
    {
      "inputs": [
        {
          "internalType": "string",
          "name": "_name",
          "type": "string"
        },
        {
          "internalType": "uint256",
          "name": "_partsCount",
          "type": "uint256"
        }
      ],
      "name": "addBuilding",
      "outputs": [
        {
          "internalType": "uint256",
          "name": "",
          "type": "uint256"
        }
      ],
      "stateMutability": "nonpayable",
      "type": "function"
    },
    {
      "inputs": [
        {
          "internalType": "uint256",
          "name": "_buildingIndex",
          "type": "uint256"
        },
        {
          "internalType": "uint256",
          "name": "_buildingPartIndex",
          "type": "uint256"
        },
        {
          "internalType": "string",
          "name": "_buildingPartAddress",
          "type": "string"
        },
        {
          "internalType": "address",
          "name": "_buildingPartOwner",
          "type": "address"
        }
      ],
      "name": "fillBuildingPart",
      "outputs": [
        {
          "internalType": "uint256",
          "name": "",
          "type": "uint256"
        }
      ],
      "stateMutability": "nonpayable",
      "type": "function"
    },
    {
      "inputs": [
        {
          "internalType": "uint256",
          "name": "_index",
          "type": "uint256"
        }
      ],
      "name": "getBuilding",
      "outputs": [
        {
          "internalType": "string",
          "name": "",
          "type": "string"
        },
        {
          "internalType": "uint256[]",
          "name": "",
          "type": "uint256[]"
        },
        {
          "internalType": "address",
          "name": "",
          "type": "address"
        }
      ],
      "stateMutability": "view",
      "type": "function",
      "constant": true
    },
    {
      "inputs": [
        {
          "internalType": "uint256",
          "name": "_id",
          "type": "uint256"
        }
      ],
      "name": "getBuildingPart",
      "outputs": [
        {
          "internalType": "address",
          "name": "",
          "type": "address"
        },
        {
          "internalType": "string",
          "name": "",
          "type": "string"
        }
      ],
      "stateMutability": "view",
      "type": "function",
      "constant": true
    }
  ],
  "bytecode": "0x608060405234801561001057600080fd5b50610c35806100206000396000f3fe608060405234801561001057600080fd5b506004361061004c5760003560e01c806305cdfebb14610051578063694ad6431461012a5780639dfd8b02146101ee578063bf099130146102fa575b600080fd5b6101146004803603604081101561006757600080fd5b810190808035906020019064010000000081111561008457600080fd5b82018360208201111561009657600080fd5b803590602001918460018302840111640100000000831117156100b857600080fd5b91908080601f016020809104026020016040519081016040528093929190818152602001838380828437600081840152601f19601f820116905080830192505050505050509192919290803590602001909291905050506103fd565b6040518082815260200191505060405180910390f35b6101566004803603602081101561014057600080fd5b8101908080359060200190929190505050610599565b604051808373ffffffffffffffffffffffffffffffffffffffff16815260200180602001828103825283818151815260200191508051906020019080838360005b838110156101b2578082015181840152602081019050610197565b50505050905090810190601f1680156101df5780820380516001836020036101000a031916815260200191505b50935050505060405180910390f35b61021a6004803603602081101561020457600080fd5b8101908080359060200190929190505050610698565b6040518080602001806020018473ffffffffffffffffffffffffffffffffffffffff168152602001838103835286818151815260200191508051906020019080838360005b8381101561027a57808201518184015260208101905061025f565b50505050905090810190601f1680156102a75780820380516001836020036101000a031916815260200191505b50838103825285818151815260200191508051906020019060200280838360005b838110156102e35780820151818401526020810190506102c8565b505050509050019550505050505060405180910390f35b6103e76004803603608081101561031057600080fd5b8101908080359060200190929190803590602001909291908035906020019064010000000081111561034157600080fd5b82018360208201111561035357600080fd5b8035906020019184600183028401116401000000008311171561037557600080fd5b91908080601f016020809104026020016040519081016040528093929190818152602001838380828437600081840152601f19601f820116905080830192505050505050509192919290803573ffffffffffffffffffffffffffffffffffffffff16906020019092919050505061081e565b6040518082815260200191505060405180910390f35b60008060405180606001604052808581526020018467ffffffffffffffff8111801561042857600080fd5b506040519080825280602002602001820160405280156104575781602001602082028036833780820191505090505b5081526020013373ffffffffffffffffffffffffffffffffffffffff16815250908060018154018082558091505060019003906000526020600020906003020160009091909190915060008201518160000190805190602001906104bc929190610b15565b5060208201518160010190805190602001906104d9929190610b95565b5060408201518160020160006101000a81548173ffffffffffffffffffffffffffffffffffffffff021916908373ffffffffffffffffffffffffffffffffffffffff16021790555050507f1da760a391045f9e73ee6cb692853deb3a02a500a3e38f6d6b4e6f7aa0215f026001600080549050038333604051808481526020018381526020018273ffffffffffffffffffffffffffffffffffffffff168152602001935050505060405180910390a1600160008054905003905092915050565b6000606060006002600085815260200190815260200160002060000160009054906101000a900473ffffffffffffffffffffffffffffffffffffffff1690506060600260008681526020019081526020016000206001018054600181600116156101000203166002900480601f0160208091040260200160405190810160405280929190818152602001828054600181600116156101000203166002900480156106845780601f1061065957610100808354040283529160200191610684565b820191906000526020600020905b81548152906001019060200180831161066757829003601f168201915b505050505090508181935093505050915091565b60608060006060600085815481106106ac57fe5b90600052602060002090600302016000018054600181600116156101000203166002900480601f0160208091040260200160405190810160405280929190818152602001828054600181600116156101000203166002900480156107515780601f1061072657610100808354040283529160200191610751565b820191906000526020600020905b81548152906001019060200180831161073457829003601f168201915b5050505050905060606000868154811061076757fe5b90600052602060002090600302016001018054806020026020016040519081016040528092919081815260200182805480156107c257602002820191906000526020600020905b8154815260200190600101908083116107ae575b5050505050905060008087815481106107d757fe5b906000526020600020906003020160020160009054906101000a900473ffffffffffffffffffffffffffffffffffffffff1690508282829550955095505050509193909250565b6000846000818154811061082e57fe5b906000526020600020906003020160020160009054906101000a900473ffffffffffffffffffffffffffffffffffffffff1673ffffffffffffffffffffffffffffffffffffffff163373ffffffffffffffffffffffffffffffffffffffff161461089757600080fd5b858560008083815481106108a757fe5b906000526020600020906003020160010182815481106108c357fe5b9060005260206000200154146108d857600080fd5b60016000815480929190600101919050555060405180604001604052808673ffffffffffffffffffffffffffffffffffffffff1681526020018781525060026000600154815260200190815260200160002060008201518160000160006101000a81548173ffffffffffffffffffffffffffffffffffffffff021916908373ffffffffffffffffffffffffffffffffffffffff160217905550602082015181600101908051906020019061098d929190610b15565b50905050600154600089815481106109a157fe5b906000526020600020906003020160010188815481106109bd57fe5b90600052602060002001819055506109d488610a47565b15610a375760008089815481106109e757fe5b906000526020600020906003020160020160006101000a81548173ffffffffffffffffffffffffffffffffffffffff021916908373ffffffffffffffffffffffffffffffffffffffff1602179055505b6001549350505050949350505050565b6000606060008381548110610a5857fe5b9060005260206000209060030201600101805480602002602001604051908101604052809291908181526020018280548015610ab357602002820191906000526020600020905b815481526020019060010190808311610a9f575b505050505090506000805b8251811015610af9576000838281518110610ad557fe5b60200260200101511115610aec5781806001019250505b8080600101915050610abe565b5081518114610b09576000610b0c565b60015b92505050919050565b828054600181600116156101000203166002900490600052602060002090601f016020900481019282601f10610b5657805160ff1916838001178555610b84565b82800160010185558215610b84579182015b82811115610b83578251825591602001919060010190610b68565b5b509050610b919190610be2565b5090565b828054828255906000526020600020908101928215610bd1579160200282015b82811115610bd0578251825591602001919060010190610bb5565b5b509050610bde9190610be2565b5090565b5b80821115610bfb576000816000905550600101610be3565b509056fea2646970667358221220e16c0810bcfd1903e3882105d39b0a279badf1691cb587297f966c5b273ca6ef64736f6c63430007000033",
  "immutableReferences": {},
  "source": "//SPDX-License-Identifier: UNLICENSED\r\npragma solidity 0.7.0;\r\n\r\ncontract SimpleBuildingOwnership {\r\n  \r\n  event NewBuilding(uint index, uint amountOfParts, address fillPartsAuthority);\r\n\r\n  modifier onlyBuildingAuthority(uint _buildingIndex) {\r\n    require(msg.sender == buildings[_buildingIndex].fillPartsAuthority);\r\n    _;\r\n  }\r\n\r\n  modifier onlyEmptyBuildingPart(uint _buildingIndex, uint _buildingPartIndex) {\r\n    require(buildings[_buildingIndex].buildingPartIds[_buildingPartIndex] == 0);\r\n    _;\r\n  }\r\n\r\n  struct Building {\r\n    string name;\r\n    uint[] buildingPartIds;\r\n    address fillPartsAuthority;\r\n  }\r\n\r\n  struct BuildingPart {\r\n    address owner;\r\n    string buildingPartAddress;\r\n  }\r\n\r\n  Building[] private buildings;\r\n  uint private totalBuildingPartsCount;\r\n  mapping(uint => BuildingPart) private buildingParts;\r\n\r\n  function addBuilding(string memory _name, uint _partsCount) public returns (uint) {\r\n  \tbuildings.push(Building(_name, new uint[](_partsCount), msg.sender));\r\n    emit NewBuilding(buildings.length - 1, _partsCount, msg.sender);\r\n    return buildings.length - 1;\r\n  }\r\n\r\n  function fillBuildingPart(uint _buildingIndex, uint _buildingPartIndex, string memory _buildingPartAddress, address _buildingPartOwner) public onlyBuildingAuthority(_buildingIndex) onlyEmptyBuildingPart(_buildingIndex, _buildingPartIndex) returns (uint) {\r\n    \r\n    totalBuildingPartsCount++;\r\n    buildingParts[totalBuildingPartsCount] = BuildingPart(_buildingPartOwner, _buildingPartAddress);\r\n    buildings[_buildingIndex].buildingPartIds[_buildingPartIndex] = totalBuildingPartsCount;\r\n    if (allBuildingPartsFilled(_buildingIndex)) {\r\n      buildings[_buildingIndex].fillPartsAuthority = address(0);\r\n    }\r\n    return totalBuildingPartsCount;\r\n  }\r\n  \r\n  function getBuilding(uint _index) public view returns(string memory, uint[] memory, address) {\r\n    string memory name = buildings[_index].name;\r\n    uint[] memory buildingPartIds = buildings[_index].buildingPartIds;\r\n    address fillPartsAuthority = buildings[_index].fillPartsAuthority;\r\n    return (name, buildingPartIds, fillPartsAuthority);\r\n  }\r\n\r\n  function getBuildingPart(uint _id) public view returns(address, string memory) {\r\n    address owner = buildingParts[_id].owner;\r\n    string memory buildingPartAddress = buildingParts[_id].buildingPartAddress;\r\n    return (owner, buildingPartAddress);\r\n  }\r\n\r\n  function allBuildingPartsFilled(uint _buildingIndex) private view returns(bool) {\r\n    uint[] memory buildingPartIds = buildings[_buildingIndex].buildingPartIds;\r\n    uint amountOfBuildingPartsFilled = 0;\r\n    for(uint i = 0; i < buildingPartIds.length; i++) {\r\n      if (buildingPartIds[i] > 0) {\r\n        amountOfBuildingPartsFilled++;\r\n      }\r\n    }\r\n    return amountOfBuildingPartsFilled == buildingPartIds.length ? true : false;\r\n  }\r\n\r\n  function uint2str(uint _i) internal pure returns(string memory _uintAsString) {\r\n    if (_i == 0) {\r\n        return \"0\";\r\n    }\r\n    uint j = _i;\r\n    uint len;\r\n    while (j != 0) {\r\n        len++;\r\n        j /= 10;\r\n    }\r\n    bytes memory bstr = new bytes(len);\r\n    uint k = len - 1;\r\n    while (_i != 0) {\r\n        bstr[k--] = byte(uint8(48 + _i % 10));\r\n        _i /= 10;\r\n    }\r\n    return string(bstr);\r\n  }\r\n}",
  "sourcePath": "C:/Users/BasBa/Documents/School/GitRepos/blockchain-minor-it/BC3_Bas/PD-07/contracts/SimpleBuildingOwnership.sol",
  "compiler": {
    "name": "solc",
    "version": "0.7.0+commit.9e61f92b.Emscripten.clang"
  },
  "schemaVersion": "3.3.2",
  "updatedAt": "2020-12-07T13:44:28.500Z",
  "networkType": "ethereum",
  "devdoc": {
    "kind": "dev",
    "methods": {},
    "version": 1
  },
  "userdoc": {
    "kind": "user",
    "methods": {},
    "version": 1
  }
}