{
  "contractName": "Test",
  "abi": [
    {
      "inputs": [],
      "stateMutability": "nonpayable",
      "type": "constructor"
    },
    {
      "inputs": [],
      "name": "value",
      "outputs": [
        {
          "internalType": "uint256",
          "name": "",
          "type": "uint256"
        }
      ],
      "stateMutability": "view",
      "type": "function",
      "constant": true
    },
    {
      "inputs": [
        {
          "internalType": "uint256",
          "name": "_value",
          "type": "uint256"
        }
      ],
      "name": "setValue",
      "outputs": [],
      "stateMutability": "nonpayable",
      "type": "function"
    },
    {
      "inputs": [],
      "name": "destruct",
      "outputs": [],
      "stateMutability": "nonpayable",
      "type": "function"
    }
  ],
  "bytecode": "0x608060405234801561001057600080fd5b50336000806101000a81548173ffffffffffffffffffffffffffffffffffffffff021916908373ffffffffffffffffffffffffffffffffffffffff160217905550610173806100606000396000f3fe608060405234801561001057600080fd5b50600436106100415760003560e01c80632b68b9c6146100465780633fa4f24514610050578063552410771461006e575b600080fd5b61004e61009c565b005b61005861012d565b6040518082815260200191505060405180910390f35b61009a6004803603602081101561008457600080fd5b8101908080359060200190929190505050610133565b005b60008054906101000a900473ffffffffffffffffffffffffffffffffffffffff1673ffffffffffffffffffffffffffffffffffffffff163373ffffffffffffffffffffffffffffffffffffffff16146100f457600080fd5b60008054906101000a900473ffffffffffffffffffffffffffffffffffffffff1673ffffffffffffffffffffffffffffffffffffffff16ff5b60015481565b806001819055505056fea2646970667358221220c2de37376cf97af8fbacd0a2c3e4b230e05d91160a6b14111f77ac94d09319f164736f6c63430007000033",
  "immutableReferences": {},
  "source": "//SPDX-License-Identifier: MIT\r\npragma solidity 0.7.0;\r\n\r\ncontract Test {\r\n\r\n    address payable private owner;\r\n    uint public value;\r\n\r\n    modifier onlyOwner() {\r\n        require(msg.sender == owner);\r\n        _;\r\n    }\r\n\r\n    constructor() {\r\n        owner = msg.sender;\r\n    }\r\n \r\n    function setValue(uint _value) external {\r\n        value = _value;\r\n    }\r\n\r\n    function destruct() external onlyOwner {\r\n        selfdestruct(owner);\r\n    }\r\n}",
  "sourcePath": "E:/School/GitRepos/blockchain-minor-it/BC3_Bas/PD-09/simple-contract-for-source-verify/contracts/Test.sol",
  "compiler": {
    "name": "solc",
    "version": "0.7.0+commit.9e61f92b.Emscripten.clang"
  },
  "schemaVersion": "3.3.2",
  "updatedAt": "2020-12-18T13:29:34.339Z",
  "networkType": "ethereum",
  "devdoc": {
    "kind": "dev",
    "methods": {},
    "version": 1
  },
  "userdoc": {
    "kind": "user",
    "methods": {},
    "version": 1
  }
}