{
  "contractName": "SimpleBuildingOwnership",
  "abi": [
    {
      "inputs": [],
      "payable": false,
      "stateMutability": "nonpayable",
      "type": "constructor"
    },
    {
      "anonymous": false,
      "inputs": [
        {
          "indexed": false,
          "internalType": "uint256",
          "name": "index",
          "type": "uint256"
        },
        {
          "indexed": false,
          "internalType": "uint256",
          "name": "amountOfParts",
          "type": "uint256"
        },
        {
          "indexed": false,
          "internalType": "address",
          "name": "fillPartsAuthority",
          "type": "address"
        }
      ],
      "name": "NewBuilding",
      "type": "event"
    },
    {
      "constant": false,
      "inputs": [
        {
          "internalType": "bytes32",
          "name": "",
          "type": "bytes32"
        },
        {
          "internalType": "string",
          "name": "result",
          "type": "string"
        }
      ],
      "name": "__callback",
      "outputs": [],
      "payable": false,
      "stateMutability": "nonpayable",
      "type": "function"
    },
    {
      "constant": false,
      "inputs": [
        {
          "internalType": "bytes32",
          "name": "_myid",
          "type": "bytes32"
        },
        {
          "internalType": "string",
          "name": "_result",
          "type": "string"
        },
        {
          "internalType": "bytes",
          "name": "_proof",
          "type": "bytes"
        }
      ],
      "name": "__callback",
      "outputs": [],
      "payable": false,
      "stateMutability": "nonpayable",
      "type": "function"
    },
    {
      "constant": true,
      "inputs": [
        {
          "internalType": "uint256",
          "name": "_buildingPartId",
          "type": "uint256"
        }
      ],
      "name": "isAddressValidated",
      "outputs": [
        {
          "internalType": "bool",
          "name": "",
          "type": "bool"
        }
      ],
      "payable": false,
      "stateMutability": "view",
      "type": "function"
    },
    {
      "constant": false,
      "inputs": [
        {
          "internalType": "string",
          "name": "_name",
          "type": "string"
        },
        {
          "internalType": "uint256",
          "name": "_partsCount",
          "type": "uint256"
        }
      ],
      "name": "addBuilding",
      "outputs": [
        {
          "internalType": "uint256",
          "name": "",
          "type": "uint256"
        }
      ],
      "payable": false,
      "stateMutability": "nonpayable",
      "type": "function"
    },
    {
      "constant": false,
      "inputs": [
        {
          "internalType": "uint256",
          "name": "_buildingIndex",
          "type": "uint256"
        },
        {
          "internalType": "uint256",
          "name": "_buildingPartIndex",
          "type": "uint256"
        },
        {
          "internalType": "string",
          "name": "_buildingPartStreet",
          "type": "string"
        },
        {
          "internalType": "string",
          "name": "_buildingPartNumber",
          "type": "string"
        },
        {
          "internalType": "string",
          "name": "_buildingPartPostalCode",
          "type": "string"
        },
        {
          "internalType": "string",
          "name": "_buildingPartCity",
          "type": "string"
        },
        {
          "internalType": "address",
          "name": "_buildingPartOwner",
          "type": "address"
        }
      ],
      "name": "fillBuildingPart",
      "outputs": [
        {
          "internalType": "uint256",
          "name": "",
          "type": "uint256"
        }
      ],
      "payable": true,
      "stateMutability": "payable",
      "type": "function"
    },
    {
      "constant": true,
      "inputs": [
        {
          "internalType": "uint256",
          "name": "_index",
          "type": "uint256"
        }
      ],
      "name": "getBuilding",
      "outputs": [
        {
          "internalType": "string",
          "name": "",
          "type": "string"
        },
        {
          "internalType": "uint256[]",
          "name": "",
          "type": "uint256[]"
        },
        {
          "internalType": "address",
          "name": "",
          "type": "address"
        }
      ],
      "payable": false,
      "stateMutability": "view",
      "type": "function"
    },
    {
      "constant": true,
      "inputs": [
        {
          "internalType": "uint256",
          "name": "_id",
          "type": "uint256"
        }
      ],
      "name": "getBuildingPart",
      "outputs": [
        {
          "internalType": "address",
          "name": "",
          "type": "address"
        },
        {
          "internalType": "string",
          "name": "",
          "type": "string"
        },
        {
          "internalType": "string",
          "name": "",
          "type": "string"
        },
        {
          "internalType": "string",
          "name": "",
          "type": "string"
        },
        {
          "internalType": "string",
          "name": "",
          "type": "string"
        }
      ],
      "payable": false,
      "stateMutability": "view",
      "type": "function"
    },
    {
      "constant": false,
      "inputs": [],
      "name": "destruct",
      "outputs": [],
      "payable": false,
      "stateMutability": "nonpayable",
      "type": "function"
    }
  ],
  "bytecode": "0x608060405234801561001057600080fd5b5033600560006101000a81548173ffffffffffffffffffffffffffffffffffffffff021916908373ffffffffffffffffffffffffffffffffffffffff160217905550613434806100616000396000f3fe60806040526004361061007b5760003560e01c8063694ad6431161004e578063694ad643146103b8578063957f6059146105e35780639dfd8b02146108ab578063fa9533bc146109da5761007b565b806305cdfebb1461008057806327dc297e146101665780632b68b9c61461023857806338bbfa501461024f575b600080fd5b34801561008c57600080fd5b50610150600480360360408110156100a357600080fd5b81019080803590602001906401000000008111156100c057600080fd5b8201836020820111156100d257600080fd5b803590602001918460018302840111640100000000831117156100f457600080fd5b91908080601f016020809104026020016040519081016040528093929190818152602001838380828437600081840152601f19601f82011690508083019250505050505050919291929080359060200190929190505050610a2d565b6040518082815260200191505060405180910390f35b34801561017257600080fd5b506102366004803603604081101561018957600080fd5b8101908080359060200190929190803590602001906401000000008111156101b057600080fd5b8201836020820111156101c257600080fd5b803590602001918460018302840111640100000000831117156101e457600080fd5b91908080601f016020809104026020016040519081016040528093929190818152602001838380828437600081840152601f19601f820116905080830192505050505050509192919290505050610bcc565b005b34801561024457600080fd5b5061024d610c98565b005b34801561025b57600080fd5b506103b66004803603606081101561027257600080fd5b81019080803590602001909291908035906020019064010000000081111561029957600080fd5b8201836020820111156102ab57600080fd5b803590602001918460018302840111640100000000831117156102cd57600080fd5b91908080601f016020809104026020016040519081016040528093929190818152602001838380828437600081840152601f19601f8201169050808301925050505050505091929192908035906020019064010000000081111561033057600080fd5b82018360208201111561034257600080fd5b8035906020019184600183028401116401000000008311171561036457600080fd5b91908080601f016020809104026020016040519081016040528093929190818152602001838380828437600081840152601f19601f820116905080830192505050505050509192919290505050610d2d565b005b3480156103c457600080fd5b506103f1600480360360208110156103db57600080fd5b8101908080359060200190929190505050610d50565b604051808673ffffffffffffffffffffffffffffffffffffffff1673ffffffffffffffffffffffffffffffffffffffff16815260200180602001806020018060200180602001858103855289818151815260200191508051906020019080838360005b8381101561046f578082015181840152602081019050610454565b50505050905090810190601f16801561049c5780820380516001836020036101000a031916815260200191505b50858103845288818151815260200191508051906020019080838360005b838110156104d55780820151818401526020810190506104ba565b50505050905090810190601f1680156105025780820380516001836020036101000a031916815260200191505b50858103835287818151815260200191508051906020019080838360005b8381101561053b578082015181840152602081019050610520565b50505050905090810190601f1680156105685780820380516001836020036101000a031916815260200191505b50858103825286818151815260200191508051906020019080838360005b838110156105a1578082015181840152602081019050610586565b50505050905090810190601f1680156105ce5780820380516001836020036101000a031916815260200191505b50995050505050505050505060405180910390f35b610895600480360360e08110156105f957600080fd5b8101908080359060200190929190803590602001909291908035906020019064010000000081111561062a57600080fd5b82018360208201111561063c57600080fd5b8035906020019184600183028401116401000000008311171561065e57600080fd5b91908080601f016020809104026020016040519081016040528093929190818152602001838380828437600081840152601f19601f820116905080830192505050505050509192919290803590602001906401000000008111156106c157600080fd5b8201836020820111156106d357600080fd5b803590602001918460018302840111640100000000831117156106f557600080fd5b91908080601f016020809104026020016040519081016040528093929190818152602001838380828437600081840152601f19601f8201169050808301925050505050505091929192908035906020019064010000000081111561075857600080fd5b82018360208201111561076a57600080fd5b8035906020019184600183028401116401000000008311171561078c57600080fd5b91908080601f016020809104026020016040519081016040528093929190818152602001838380828437600081840152601f19601f820116905080830192505050505050509192919290803590602001906401000000008111156107ef57600080fd5b82018360208201111561080157600080fd5b8035906020019184600183028401116401000000008311171561082357600080fd5b91908080601f016020809104026020016040519081016040528093929190818152602001838380828437600081840152601f19601f820116905080830192505050505050509192919290803573ffffffffffffffffffffffffffffffffffffffff16906020019092919050505061107c565b6040518082815260200191505060405180910390f35b3480156108b757600080fd5b506108e4600480360360208110156108ce57600080fd5b81019080803590602001909291905050506113f3565b6040518080602001806020018473ffffffffffffffffffffffffffffffffffffffff1673ffffffffffffffffffffffffffffffffffffffff168152602001838103835286818151815260200191508051906020019080838360005b8381101561095a57808201518184015260208101905061093f565b50505050905090810190601f1680156109875780820380516001836020036101000a031916815260200191505b50838103825285818151815260200191508051906020019060200280838360005b838110156109c35780820151818401526020810190506109a8565b505050509050019550505050505060405180910390f35b3480156109e657600080fd5b50610a13600480360360208110156109fd57600080fd5b810190808035906020019092919050505061157a565b604051808215151515815260200191505060405180910390f35b60006006604051806060016040528085815260200184604051908082528060200260200182016040528015610a715781602001602082028038833980820191505090505b5081526020013373ffffffffffffffffffffffffffffffffffffffff16815250908060018154018082558091505090600182039060005260206000209060030201600090919290919091506000820151816000019080519060200190610ad89291906131d2565b506020820151816001019080519060200190610af5929190613252565b5060408201518160020160006101000a81548173ffffffffffffffffffffffffffffffffffffffff021916908373ffffffffffffffffffffffffffffffffffffffff1602179055505050507f1da760a391045f9e73ee6cb692853deb3a02a500a3e38f6d6b4e6f7aa0215f026001600680549050038333604051808481526020018381526020018273ffffffffffffffffffffffffffffffffffffffff1673ffffffffffffffffffffffffffffffffffffffff168152602001935050505060405180910390a1600160068054905003905092915050565b610bd4611afd565b73ffffffffffffffffffffffffffffffffffffffff163373ffffffffffffffffffffffffffffffffffffffff1614610c0b57600080fd5b600081511115610c9457806009826040518082805190602001908083835b60208310610c4c5780518252602082019150602081019050602083039250610c29565b6001836020036101000a03801982511681845116808217855250505050505090500191505090815260200160405180910390209080519060200190610c9292919061329f565b505b5050565b600560009054906101000a900473ffffffffffffffffffffffffffffffffffffffff1673ffffffffffffffffffffffffffffffffffffffff163373ffffffffffffffffffffffffffffffffffffffff1614610cf257600080fd5b600560009054906101000a900473ffffffffffffffffffffffffffffffffffffffff1673ffffffffffffffffffffffffffffffffffffffff16ff5b6000801b600360008060001b815260200190815260200160002081905550505050565b600060608060608060006008600088815260200190815260200160002060000160009054906101000a900473ffffffffffffffffffffffffffffffffffffffff1690506060600860008981526020019081526020016000206001018054600181600116156101000203166002900480601f016020809104026020016040519081016040528092919081815260200182805460018160011615610100020316600290048015610e3f5780601f10610e1457610100808354040283529160200191610e3f565b820191906000526020600020905b815481529060010190602001808311610e2257829003601f168201915b505050505090506060600860008a81526020019081526020016000206002018054600181600116156101000203166002900480601f016020809104026020016040519081016040528092919081815260200182805460018160011615610100020316600290048015610ef25780601f10610ec757610100808354040283529160200191610ef2565b820191906000526020600020905b815481529060010190602001808311610ed557829003601f168201915b505050505090506060600860008b81526020019081526020016000206003018054600181600116156101000203166002900480601f016020809104026020016040519081016040528092919081815260200182805460018160011615610100020316600290048015610fa55780601f10610f7a57610100808354040283529160200191610fa5565b820191906000526020600020905b815481529060010190602001808311610f8857829003601f168201915b505050505090506060600860008c81526020019081526020016000206004018054600181600116156101000203166002900480601f0160208091040260200160405190810160405280929190818152602001828054600181600116156101000203166002900480156110585780601f1061102d57610100808354040283529160200191611058565b820191906000526020600020905b81548152906001019060200180831161103b57829003601f168201915b50505050509050848484848499509950995099509950505050505091939590929450565b6000876006818154811061108c57fe5b906000526020600020906003020160020160009054906101000a900473ffffffffffffffffffffffffffffffffffffffff1673ffffffffffffffffffffffffffffffffffffffff163373ffffffffffffffffffffffffffffffffffffffff16146110f557600080fd5b888860006006838154811061110657fe5b9060005260206000209060030201600101828154811061112257fe5b90600052602060002001541461113757600080fd5b6111756040518060400160405280600381526020017f55524c0000000000000000000000000000000000000000000000000000000000815250611e1a565b4710156111cd576040517f08c379a000000000000000000000000000000000000000000000000000000000815260040180806020018281038252602e81526020018061338a602e913960400191505060405180910390fd5b6112166040518060400160405280600381526020017f55524c00000000000000000000000000000000000000000000000000000000008152506112118b8b8b6121ab565b612303565b506007600081548092919060010191905055506040518060a001604052808673ffffffffffffffffffffffffffffffffffffffff1681526020018a81526020018981526020018881526020018781525060086000600754815260200190815260200160002060008201518160000160006101000a81548173ffffffffffffffffffffffffffffffffffffffff021916908373ffffffffffffffffffffffffffffffffffffffff16021790555060208201518160010190805190602001906112de9291906131d2565b5060408201518160020190805190602001906112fb9291906131d2565b5060608201518160030190805190602001906113189291906131d2565b5060808201518160040190805190602001906113359291906131d2565b5090505060075460068c8154811061134957fe5b90600052602060002090600302016001018b8154811061136557fe5b906000526020600020018190555061137c8b612849565b156113e057600060068c8154811061139057fe5b906000526020600020906003020160020160006101000a81548173ffffffffffffffffffffffffffffffffffffffff021916908373ffffffffffffffffffffffffffffffffffffffff1602179055505b6007549350505050979650505050505050565b606080600060606006858154811061140757fe5b90600052602060002090600302016000018054600181600116156101000203166002900480601f0160208091040260200160405190810160405280929190818152602001828054600181600116156101000203166002900480156114ac5780601f10611481576101008083540402835291602001916114ac565b820191906000526020600020905b81548152906001019060200180831161148f57829003601f168201915b505050505090506060600686815481106114c257fe5b906000526020600020906003020160010180548060200260200160405190810160405280929190818152602001828054801561151d57602002820191906000526020600020905b815481526020019060010190808311611509575b5050505050905060006006878154811061153357fe5b906000526020600020906003020160020160009054906101000a900473ffffffffffffffffffffffffffffffffffffffff1690508282829550955095505050509193909250565b600061158461331f565b600860008481526020019081526020016000206040518060a00160405290816000820160009054906101000a900473ffffffffffffffffffffffffffffffffffffffff1673ffffffffffffffffffffffffffffffffffffffff1673ffffffffffffffffffffffffffffffffffffffff168152602001600182018054600181600116156101000203166002900480601f0160208091040260200160405190810160405280929190818152602001828054600181600116156101000203166002900480156116915780601f1061166657610100808354040283529160200191611691565b820191906000526020600020905b81548152906001019060200180831161167457829003601f168201915b50505050508152602001600282018054600181600116156101000203166002900480601f0160208091040260200160405190810160405280929190818152602001828054600181600116156101000203166002900480156117335780601f1061170857610100808354040283529160200191611733565b820191906000526020600020905b81548152906001019060200180831161171657829003601f168201915b50505050508152602001600382018054600181600116156101000203166002900480601f0160208091040260200160405190810160405280929190818152602001828054600181600116156101000203166002900480156117d55780601f106117aa576101008083540402835291602001916117d5565b820191906000526020600020905b8154815290600101906020018083116117b857829003601f168201915b50505050508152602001600482018054600181600116156101000203166002900480601f0160208091040260200160405190810160405280929190818152602001828054600181600116156101000203166002900480156118775780601f1061184c57610100808354040283529160200191611877565b820191906000526020600020905b81548152906001019060200180831161185a57829003601f168201915b505050505081525050905060606040518060200160405280600081525090506119c482608001516119b66040518060400160405280600181526020017f20000000000000000000000000000000000000000000000000000000000000008152506119a8866060015161199a6040518060400160405280600281526020017f2c2000000000000000000000000000000000000000000000000000000000000081525061198c8a6040015161197e6040518060400160405280600181526020017f20000000000000000000000000000000000000000000000000000000000000008152506119708e602001518e61291e90919063ffffffff16565b61291e90919063ffffffff16565b61291e90919063ffffffff16565b61291e90919063ffffffff16565b61291e90919063ffffffff16565b61291e90919063ffffffff16565b61291e90919063ffffffff16565b905060606009826040518082805190602001908083835b602083106119fe57805182526020820191506020810190506020830392506119db565b6001836020036101000a03801982511681845116808217855250505050505090500191505090815260200160405180910390208054600181600116156101000203166002900480601f016020809104026020016040519081016040528092919081815260200182805460018160011615610100020316600290048015611ac55780601f10611a9a57610100808354040283529160200191611ac5565b820191906000526020600020905b815481529060010190602001808311611aa857829003601f168201915b50505050509050611adf8183612a6d90919063ffffffff16565b15611af05760019350505050611af8565b600093505050505b919050565b60008073ffffffffffffffffffffffffffffffffffffffff16600160009054906101000a900473ffffffffffffffffffffffffffffffffffffffff1673ffffffffffffffffffffffffffffffffffffffff161480611b8557506000611b83600160009054906101000a900473ffffffffffffffffffffffffffffffffffffffff16612bc8565b145b15611b9657611b946000612bd3565b505b600160009054906101000a900473ffffffffffffffffffffffffffffffffffffffff1673ffffffffffffffffffffffffffffffffffffffff166338cc48316040518163ffffffff1660e01b8152600401602060405180830381600087803b158015611c0057600080fd5b505af1158015611c14573d6000803e3d6000fd5b505050506040513d6020811015611c2a57600080fd5b810190808051906020019092919050505073ffffffffffffffffffffffffffffffffffffffff166000809054906101000a900473ffffffffffffffffffffffffffffffffffffffff1673ffffffffffffffffffffffffffffffffffffffff1614611d7357600160009054906101000a900473ffffffffffffffffffffffffffffffffffffffff1673ffffffffffffffffffffffffffffffffffffffff166338cc48316040518163ffffffff1660e01b8152600401602060405180830381600087803b158015611cf857600080fd5b505af1158015611d0c573d6000803e3d6000fd5b505050506040513d6020811015611d2257600080fd5b81019080805190602001909291905050506000806101000a81548173ffffffffffffffffffffffffffffffffffffffff021916908373ffffffffffffffffffffffffffffffffffffffff1602179055505b6000809054906101000a900473ffffffffffffffffffffffffffffffffffffffff1673ffffffffffffffffffffffffffffffffffffffff1663c281d19e6040518163ffffffff1660e01b815260040160206040518083038186803b158015611dda57600080fd5b505afa158015611dee573d6000803e3d6000fd5b505050506040513d6020811015611e0457600080fd5b8101908080519060200190929190505050905090565b60008073ffffffffffffffffffffffffffffffffffffffff16600160009054906101000a900473ffffffffffffffffffffffffffffffffffffffff1673ffffffffffffffffffffffffffffffffffffffff161480611ea257506000611ea0600160009054906101000a900473ffffffffffffffffffffffffffffffffffffffff16612bc8565b145b15611eb357611eb16000612bd3565b505b600160009054906101000a900473ffffffffffffffffffffffffffffffffffffffff1673ffffffffffffffffffffffffffffffffffffffff166338cc48316040518163ffffffff1660e01b8152600401602060405180830381600087803b158015611f1d57600080fd5b505af1158015611f31573d6000803e3d6000fd5b505050506040513d6020811015611f4757600080fd5b810190808051906020019092919050505073ffffffffffffffffffffffffffffffffffffffff166000809054906101000a900473ffffffffffffffffffffffffffffffffffffffff1673ffffffffffffffffffffffffffffffffffffffff161461209057600160009054906101000a900473ffffffffffffffffffffffffffffffffffffffff1673ffffffffffffffffffffffffffffffffffffffff166338cc48316040518163ffffffff1660e01b8152600401602060405180830381600087803b15801561201557600080fd5b505af1158015612029573d6000803e3d6000fd5b505050506040513d602081101561203f57600080fd5b81019080805190602001909291905050506000806101000a81548173ffffffffffffffffffffffffffffffffffffffff021916908373ffffffffffffffffffffffffffffffffffffffff1602179055505b6000809054906101000a900473ffffffffffffffffffffffffffffffffffffffff1673ffffffffffffffffffffffffffffffffffffffff1663524f3889836040518263ffffffff1660e01b81526004018080602001828103825283818151815260200191508051906020019080838360005b8381101561211d578082015181840152602081019050612102565b50505050905090810190601f16801561214a5780820380516001836020036101000a031916815260200191505b5092505050602060405180830381600087803b15801561216957600080fd5b505af115801561217d573d6000803e3d6000fd5b505050506040513d602081101561219357600080fd5b81019080805190602001909291905050509050919050565b6060806040518060200160405280600081525090506122f66040518060400160405280601f81526020017f292e726573706f6e73652e646f63735b305d2e77656572676176656e61616d008152506122e8856122da6040518060400160405280600181526020017f2c000000000000000000000000000000000000000000000000000000000000008152506122cc8a6122be6040518060400160405280600381526020017f25323000000000000000000000000000000000000000000000000000000000008152506122b08f6122a26040518060800160405280604881526020016133b8604891398e61291e90919063ffffffff16565b61291e90919063ffffffff16565b61291e90919063ffffffff16565b61291e90919063ffffffff16565b61291e90919063ffffffff16565b61291e90919063ffffffff16565b61291e90919063ffffffff16565b9050809150509392505050565b60008073ffffffffffffffffffffffffffffffffffffffff16600160009054906101000a900473ffffffffffffffffffffffffffffffffffffffff1673ffffffffffffffffffffffffffffffffffffffff16148061238b57506000612389600160009054906101000a900473ffffffffffffffffffffffffffffffffffffffff16612bc8565b145b1561239c5761239a6000612bd3565b505b600160009054906101000a900473ffffffffffffffffffffffffffffffffffffffff1673ffffffffffffffffffffffffffffffffffffffff166338cc48316040518163ffffffff1660e01b8152600401602060405180830381600087803b15801561240657600080fd5b505af115801561241a573d6000803e3d6000fd5b505050506040513d602081101561243057600080fd5b810190808051906020019092919050505073ffffffffffffffffffffffffffffffffffffffff166000809054906101000a900473ffffffffffffffffffffffffffffffffffffffff1673ffffffffffffffffffffffffffffffffffffffff161461257957600160009054906101000a900473ffffffffffffffffffffffffffffffffffffffff1673ffffffffffffffffffffffffffffffffffffffff166338cc48316040518163ffffffff1660e01b8152600401602060405180830381600087803b1580156124fe57600080fd5b505af1158015612512573d6000803e3d6000fd5b505050506040513d602081101561252857600080fd5b81019080805190602001909291905050506000806101000a81548173ffffffffffffffffffffffffffffffffffffffff021916908373ffffffffffffffffffffffffffffffffffffffff1602179055505b60008060009054906101000a900473ffffffffffffffffffffffffffffffffffffffff1673ffffffffffffffffffffffffffffffffffffffff1663524f3889856040518263ffffffff1660e01b81526004018080602001828103825283818151815260200191508051906020019080838360005b838110156126085780820151818401526020810190506125ed565b50505050905090810190601f1680156126355780820380516001836020036101000a031916815260200191505b5092505050602060405180830381600087803b15801561265457600080fd5b505af1158015612668573d6000803e3d6000fd5b505050506040513d602081101561267e57600080fd5b8101908080519060200190929190505050905062030d403a02670de0b6b3a7640000018111156126b4576000801b915050612843565b6000809054906101000a900473ffffffffffffffffffffffffffffffffffffffff1673ffffffffffffffffffffffffffffffffffffffff1663adf59f9982600087876040518563ffffffff1660e01b8152600401808481526020018060200180602001838103835285818151815260200191508051906020019080838360005b8381101561274f578082015181840152602081019050612734565b50505050905090810190601f16801561277c5780820380516001836020036101000a031916815260200191505b50838103825284818151815260200191508051906020019080838360005b838110156127b557808201518184015260208101905061279a565b50505050905090810190601f1680156127e25780820380516001836020036101000a031916815260200191505b50955050505050506020604051808303818588803b15801561280357600080fd5b505af1158015612817573d6000803e3d6000fd5b50505050506040513d602081101561282e57600080fd5b81019080805190602001909291905050509150505b92915050565b600060606006838154811061285a57fe5b90600052602060002090600302016001018054806020026020016040519081016040528092919081815260200182805480156128b557602002820191906000526020600020905b8154815260200190600101908083116128a1575b50505050509050600080905060008090505b82518110156129025760008382815181106128de57fe5b602002602001015111156128f55781806001019250505b80806001019150506128c7565b5081518114612912576000612915565b60015b92505050919050565b6060808390506060839050600081511161293457fe5b606081518351016040519080825280601f01601f19166020018201604052801561296d5781602001600182028038833980820191505090505b5090506060819050600080600091505b85518210156129eb5785828151811061299257fe5b602001015160f81c60f81b8382806001019350815181106129af57fe5b60200101907effffffffffffffffffffffffffffffffffffffffffffffffffffffffffffff1916908160001a905350818060010192505061297d565b600091505b8451821015612a5e57848281518110612a0557fe5b602001015160f81c60f81b838280600101935081518110612a2257fe5b60200101907effffffffffffffffffffffffffffffffffffffffffffffffffffffffffffff1916908160001a90535081806001019250506129f0565b82965050505050505092915050565b6000606083905060608390508051825114612a8d57600092505050612bc2565b60008090505b8251811015612bba57818181518110612aa857fe5b602001015160f81c60f81b7effffffffffffffffffffffffffffffffffffffffffffffffffffffffffffff1916838281518110612ae157fe5b602001015160f81c60f81b7effffffffffffffffffffffffffffffffffffffffffffffffffffffffffffff191614158015612b9c5750612b36828281518110612b2657fe5b602001015160f81c60f81b612be4565b7effffffffffffffffffffffffffffffffffffffffffffffffffffffffffffff1916612b77848381518110612b6757fe5b602001015160f81c60f81b612be4565b7effffffffffffffffffffffffffffffffffffffffffffffffffffffffffffff191614155b15612bad5760009350505050612bc2565b8080600101915050612a93565b506001925050505b92915050565b6000813b9050919050565b6000612bdd612c61565b9050919050565b6000606160f81b827effffffffffffffffffffffffffffffffffffffffffffffffffffffffffffff191610158015612c425750607a60f81b827effffffffffffffffffffffffffffffffffffffffffffffffffffffffffffff191611155b15612c585760208260f81c0360f81b9050612c5c565b8190505b919050565b600080612c81731d3b2638a7cc9f2cb3d298a3da7a90b67e5506ed612bc8565b1115612d2357731d3b2638a7cc9f2cb3d298a3da7a90b67e5506ed600160006101000a81548173ffffffffffffffffffffffffffffffffffffffff021916908373ffffffffffffffffffffffffffffffffffffffff160217905550612d1a6040518060400160405280600b81526020017f6574685f6d61696e6e65740000000000000000000000000000000000000000008152506131b8565b600190506131b5565b6000612d4273c03a2615d5efaf5f49f60b7bb6583eaec212fdf1612bc8565b1115612de45773c03a2615d5efaf5f49f60b7bb6583eaec212fdf1600160006101000a81548173ffffffffffffffffffffffffffffffffffffffff021916908373ffffffffffffffffffffffffffffffffffffffff160217905550612ddb6040518060400160405280600c81526020017f6574685f726f707374656e3300000000000000000000000000000000000000008152506131b8565b600190506131b5565b6000612e0373b7a07bcf2ba2f2703b24c0691b5278999c59ac7e612bc8565b1115612ea55773b7a07bcf2ba2f2703b24c0691b5278999c59ac7e600160006101000a81548173ffffffffffffffffffffffffffffffffffffffff021916908373ffffffffffffffffffffffffffffffffffffffff160217905550612e9c6040518060400160405280600981526020017f6574685f6b6f76616e00000000000000000000000000000000000000000000008152506131b8565b600190506131b5565b6000612ec473146500cfd35b22e4a392fe0adc06de1a1368ed48612bc8565b1115612f665773146500cfd35b22e4a392fe0adc06de1a1368ed48600160006101000a81548173ffffffffffffffffffffffffffffffffffffffff021916908373ffffffffffffffffffffffffffffffffffffffff160217905550612f5d6040518060400160405280600b81526020017f6574685f72696e6b6562790000000000000000000000000000000000000000008152506131b8565b600190506131b5565b6000612f8573a2998efd205fb9d4b4963afb70778d6354ad3a41612bc8565b11156130275773a2998efd205fb9d4b4963afb70778d6354ad3a41600160006101000a81548173ffffffffffffffffffffffffffffffffffffffff021916908373ffffffffffffffffffffffffffffffffffffffff16021790555061301e6040518060400160405280600a81526020017f6574685f676f65726c69000000000000000000000000000000000000000000008152506131b8565b600190506131b5565b6000613046736f485c8bf6fc43ea212e93bbf8ce046c7f1cb475612bc8565b11156130aa57736f485c8bf6fc43ea212e93bbf8ce046c7f1cb475600160006101000a81548173ffffffffffffffffffffffffffffffffffffffff021916908373ffffffffffffffffffffffffffffffffffffffff160217905550600190506131b5565b60006130c97320e12a1f859b3feae5fb2a0a32c18f5a65555bbf612bc8565b111561312d577320e12a1f859b3feae5fb2a0a32c18f5a65555bbf600160006101000a81548173ffffffffffffffffffffffffffffffffffffffff021916908373ffffffffffffffffffffffffffffffffffffffff160217905550600190506131b5565b600061314c7351efaf4c8b3c9afbd5ab9f4bbc82784ab6ef8faa612bc8565b11156131b0577351efaf4c8b3c9afbd5ab9f4bbc82784ab6ef8faa600160006101000a81548173ffffffffffffffffffffffffffffffffffffffff021916908373ffffffffffffffffffffffffffffffffffffffff160217905550600190506131b5565b600090505b90565b80600290805190602001906131ce92919061329f565b5050565b828054600181600116156101000203166002900490600052602060002090601f016020900481019282601f1061321357805160ff1916838001178555613241565b82800160010185558215613241579182015b82811115613240578251825591602001919060010190613225565b5b50905061324e9190613364565b5090565b82805482825590600052602060002090810192821561328e579160200282015b8281111561328d578251825591602001919060010190613272565b5b50905061329b9190613364565b5090565b828054600181600116156101000203166002900490600052602060002090601f016020900481019282601f106132e057805160ff191683800117855561330e565b8280016001018555821561330e579182015b8281111561330d5782518255916020019190600101906132f2565b5b50905061331b9190613364565b5090565b6040518060a00160405280600073ffffffffffffffffffffffffffffffffffffffff168152602001606081526020016060815260200160608152602001606081525090565b61338691905b8082111561338257600081600090555060010161336a565b5090565b9056fe706c656173652061646420736f6d652045544820746f20636f76657220666f7220746865207175657279206665656a736f6e2868747470733a2f2f67656f646174612e6e6174696f6e61616c67656f72656769737465722e6e6c2f6c6f63617469657365727665722f76332f737567676573743f713da265627a7a72315820d4d68b297694e9e1a5e3350d0bc7cc8d64ba67c79945b5291d8e2540a17bdccc64736f6c63430005110032",
  "source": "//SPDX-License-Identifier: MIT\r\npragma solidity ^0.5.0;\r\n\r\nimport \"./provableAPI.sol\";\r\nimport \"solidity-util/lib/Strings.sol\";\r\nimport \"solidity-util/lib/Integers.sol\";\r\nimport \"solidity-util/lib/Addresses.sol\";\r\n\r\n/// @title A simple registration contract for ownership of a building part\r\n/// @author Bas Bastiaansen\r\n/// @notice This contract is made under education circumstances and is therefore not meant for real-world use\r\ncontract SimpleBuildingOwnership is usingProvable {\r\n\r\n    using Strings for string;\r\n    using Integers for uint;\r\n    using Addresses for address;\r\n    using Addresses for address payable;\r\n  \r\n    event NewBuilding(uint index, uint amountOfParts, address fillPartsAuthority);\r\n\r\n    modifier onlyBuildingAuthority(uint _buildingIndex) {\r\n        require(msg.sender == buildings[_buildingIndex].fillPartsAuthority);\r\n        _;\r\n    }\r\n\r\n    modifier onlyEmptyBuildingPart(uint _buildingIndex, uint _buildingPartIndex) {\r\n        require(buildings[_buildingIndex].buildingPartIds[_buildingPartIndex] == 0);\r\n        _;\r\n    }\r\n\r\n    modifier onlyDestructAuthority() {\r\n        require(msg.sender == destructAuthority);\r\n        _;\r\n    }\r\n\r\n    struct Building {\r\n        string name;\r\n        uint[] buildingPartIds;\r\n        address fillPartsAuthority;\r\n    }\r\n\r\n    struct BuildingPart {\r\n        address owner;\r\n        string streetName;\r\n        string houseNumber;\r\n        string postalCode;\r\n        string city;\r\n    }\r\n\r\n    address payable private destructAuthority;    \r\n    Building[] private buildings;\r\n    uint private totalBuildingPartsCount;\r\n    mapping(uint => BuildingPart) private buildingParts;\r\n    mapping(string => string) private validatedAddresses;\r\n\r\n    constructor() public {\r\n        destructAuthority = msg.sender;\r\n    }\r\n\r\n    function __callback(bytes32, string memory result) public {\r\n        if (msg.sender != provable_cbAddress()) revert();\r\n\r\n        if (bytes(result).length > 0) {\r\n        validatedAddresses[result] = result;\r\n        }\r\n    }\r\n\r\n    function isAddressValidated(uint _buildingPartId) public view returns (bool) {\r\n\r\n        BuildingPart memory buildingPart = buildingParts[_buildingPartId];\r\n        string memory addressString = \"\";\r\n        addressString = addressString.concat(buildingPart.streetName).concat(\" \").concat(buildingPart.houseNumber).concat(\", \").concat(buildingPart.postalCode).concat(\" \").concat(buildingPart.city);\r\n        string memory validatedAddress = validatedAddresses[addressString];\r\n        \r\n        if (addressString.compareToIgnoreCase(validatedAddress)) {\r\n        return true;\r\n        } else {\r\n        return false;\r\n        }\r\n    }\r\n\r\n    function addBuilding(string memory _name, uint _partsCount) public returns (uint) {\r\n        buildings.push(Building(_name, new uint[](_partsCount), msg.sender));\r\n        emit NewBuilding(buildings.length - 1, _partsCount, msg.sender);\r\n        return buildings.length - 1;\r\n    }\r\n\r\n    function getGeoRegisterUrl(string memory _buildingPartStreet, string memory _buildingPartNumber, \r\n        string memory _buildingPartPostalCode) private pure returns (string memory) {\r\n\r\n        string memory apiUrl = \"\";\r\n        apiUrl = apiUrl.concat(\"json(https://geodata.nationaalgeoregister.nl/locatieserver/v3/suggest?q=\").concat(_buildingPartStreet).concat(\"%20\").concat(_buildingPartNumber).concat(\",\").concat(_buildingPartPostalCode).concat(\").response.docs[0].weergavenaam\");\r\n        return apiUrl;\r\n    }\r\n\r\n    function fillBuildingPart(uint _buildingIndex, uint _buildingPartIndex, string memory _buildingPartStreet, string memory _buildingPartNumber, \r\n        string memory _buildingPartPostalCode, string memory _buildingPartCity, address _buildingPartOwner) public payable \r\n        onlyBuildingAuthority(_buildingIndex) onlyEmptyBuildingPart(_buildingIndex, _buildingPartIndex) returns (uint) {\r\n        \r\n        require (address(this).balance >= provable_getPrice(\"URL\"),\r\n            \"please add some ETH to cover for the query fee\");\r\n        provable_query(\"URL\", getGeoRegisterUrl(_buildingPartStreet, _buildingPartNumber, _buildingPartPostalCode));\r\n\r\n        totalBuildingPartsCount++;\r\n        buildingParts[totalBuildingPartsCount] = BuildingPart(_buildingPartOwner, _buildingPartStreet, _buildingPartNumber, _buildingPartPostalCode, _buildingPartCity);\r\n        buildings[_buildingIndex].buildingPartIds[_buildingPartIndex] = totalBuildingPartsCount;\r\n        if (allBuildingPartsFilled(_buildingIndex)) {\r\n        buildings[_buildingIndex].fillPartsAuthority = address(0);\r\n        }\r\n        return totalBuildingPartsCount;\r\n    }\r\n  \r\n    function getBuilding(uint _index) public view returns(string memory, uint[] memory, address) {\r\n        string memory name = buildings[_index].name;\r\n        uint[] memory buildingPartIds = buildings[_index].buildingPartIds;\r\n        address fillPartsAuthority = buildings[_index].fillPartsAuthority;\r\n        return (name, buildingPartIds, fillPartsAuthority);\r\n    }\r\n\r\n    function getBuildingPart(uint _id) public view returns(address, string memory, string memory, string memory, string memory) {\r\n        address owner = buildingParts[_id].owner;\r\n        string memory streetName = buildingParts[_id].streetName;\r\n        string memory houseNumber = buildingParts[_id].houseNumber;\r\n        string memory postalCode = buildingParts[_id].postalCode;\r\n        string memory city = buildingParts[_id].city;\r\n        return (owner, streetName, houseNumber, postalCode, city);\r\n    }\r\n\r\n    function allBuildingPartsFilled(uint _buildingIndex) private view returns(bool) {\r\n        uint[] memory buildingPartIds = buildings[_buildingIndex].buildingPartIds;\r\n        uint amountOfBuildingPartsFilled = 0;\r\n        for(uint i = 0; i < buildingPartIds.length; i++) {\r\n        if (buildingPartIds[i] > 0) {\r\n            amountOfBuildingPartsFilled++;\r\n        }\r\n        }\r\n        return amountOfBuildingPartsFilled == buildingPartIds.length ? true : false;\r\n    }\r\n\r\n    function destruct() external onlyDestructAuthority {\r\n        selfdestruct(destructAuthority);\r\n    }\r\n}",
  "sourcePath": "E:/School/GitRepos/blockchain-minor-it/BC3_Bas/PD-09/truffle-environment/contracts/SimpleBuildingOwnership.sol",
  "compiler": {
    "name": "solc",
    "version": "0.5.17+commit.d19bba13.Emscripten.clang"
  },
  "schemaVersion": "3.3.2",
  "updatedAt": "2020-12-18T13:08:45.310Z",
  "networkType": "ethereum",
  "devdoc": {
    "author": "Bas Bastiaansen",
    "methods": {},
    "title": "A simple registration contract for ownership of a building part"
  },
  "userdoc": {
    "methods": {},
    "notice": "This contract is made under education circumstances and is therefore not meant for real-world use"
  }
}