{
  "contractName": "SimpleBuildingOwnership",
  "abi": [
    {
      "anonymous": false,
      "inputs": [
        {
          "indexed": false,
          "internalType": "uint256",
          "name": "index",
          "type": "uint256"
        },
        {
          "indexed": false,
          "internalType": "uint256",
          "name": "amountOfParts",
          "type": "uint256"
        },
        {
          "indexed": false,
          "internalType": "address",
          "name": "fillPartsAuthority",
          "type": "address"
        }
      ],
      "name": "NewBuilding",
      "type": "event"
    },
    {
      "constant": false,
      "inputs": [
        {
          "internalType": "bytes32",
          "name": "",
          "type": "bytes32"
        },
        {
          "internalType": "string",
          "name": "result",
          "type": "string"
        }
      ],
      "name": "__callback",
      "outputs": [],
      "payable": false,
      "stateMutability": "nonpayable",
      "type": "function"
    },
    {
      "constant": false,
      "inputs": [
        {
          "internalType": "bytes32",
          "name": "_myid",
          "type": "bytes32"
        },
        {
          "internalType": "string",
          "name": "_result",
          "type": "string"
        },
        {
          "internalType": "bytes",
          "name": "_proof",
          "type": "bytes"
        }
      ],
      "name": "__callback",
      "outputs": [],
      "payable": false,
      "stateMutability": "nonpayable",
      "type": "function"
    },
    {
      "constant": true,
      "inputs": [
        {
          "internalType": "uint256",
          "name": "_buildingPartId",
          "type": "uint256"
        }
      ],
      "name": "isAddressValidated",
      "outputs": [
        {
          "internalType": "bool",
          "name": "",
          "type": "bool"
        }
      ],
      "payable": false,
      "stateMutability": "view",
      "type": "function"
    },
    {
      "constant": false,
      "inputs": [
        {
          "internalType": "string",
          "name": "_name",
          "type": "string"
        },
        {
          "internalType": "uint256",
          "name": "_partsCount",
          "type": "uint256"
        }
      ],
      "name": "addBuilding",
      "outputs": [
        {
          "internalType": "uint256",
          "name": "",
          "type": "uint256"
        }
      ],
      "payable": false,
      "stateMutability": "nonpayable",
      "type": "function"
    },
    {
      "constant": false,
      "inputs": [
        {
          "internalType": "uint256",
          "name": "_buildingIndex",
          "type": "uint256"
        },
        {
          "internalType": "uint256",
          "name": "_buildingPartIndex",
          "type": "uint256"
        },
        {
          "internalType": "string",
          "name": "_buildingPartStreet",
          "type": "string"
        },
        {
          "internalType": "string",
          "name": "_buildingPartNumber",
          "type": "string"
        },
        {
          "internalType": "string",
          "name": "_buildingPartPostalCode",
          "type": "string"
        },
        {
          "internalType": "string",
          "name": "_buildingPartCity",
          "type": "string"
        },
        {
          "internalType": "address",
          "name": "_buildingPartOwner",
          "type": "address"
        }
      ],
      "name": "fillBuildingPart",
      "outputs": [
        {
          "internalType": "uint256",
          "name": "",
          "type": "uint256"
        }
      ],
      "payable": true,
      "stateMutability": "payable",
      "type": "function"
    },
    {
      "constant": true,
      "inputs": [
        {
          "internalType": "uint256",
          "name": "_index",
          "type": "uint256"
        }
      ],
      "name": "getBuilding",
      "outputs": [
        {
          "internalType": "string",
          "name": "",
          "type": "string"
        },
        {
          "internalType": "uint256[]",
          "name": "",
          "type": "uint256[]"
        },
        {
          "internalType": "address",
          "name": "",
          "type": "address"
        }
      ],
      "payable": false,
      "stateMutability": "view",
      "type": "function"
    },
    {
      "constant": true,
      "inputs": [
        {
          "internalType": "uint256",
          "name": "_id",
          "type": "uint256"
        }
      ],
      "name": "getBuildingPart",
      "outputs": [
        {
          "internalType": "address",
          "name": "",
          "type": "address"
        },
        {
          "internalType": "string",
          "name": "",
          "type": "string"
        },
        {
          "internalType": "string",
          "name": "",
          "type": "string"
        },
        {
          "internalType": "string",
          "name": "",
          "type": "string"
        },
        {
          "internalType": "string",
          "name": "",
          "type": "string"
        }
      ],
      "payable": false,
      "stateMutability": "view",
      "type": "function"
    }
  ],
  "bytecode": "0x608060405234801561001057600080fd5b5061337d806100206000396000f3fe6080604052600436106100705760003560e01c8063694ad6431161004e578063694ad64314610396578063957f6059146105c15780639dfd8b0214610889578063fa9533bc146109b857610070565b806305cdfebb1461007557806327dc297e1461015b57806338bbfa501461022d575b600080fd5b34801561008157600080fd5b506101456004803603604081101561009857600080fd5b81019080803590602001906401000000008111156100b557600080fd5b8201836020820111156100c757600080fd5b803590602001918460018302840111640100000000831117156100e957600080fd5b91908080601f016020809104026020016040519081016040528093929190818152602001838380828437600081840152601f19601f82011690508083019250505050505050919291929080359060200190929190505050610a0b565b6040518082815260200191505060405180910390f35b34801561016757600080fd5b5061022b6004803603604081101561017e57600080fd5b8101908080359060200190929190803590602001906401000000008111156101a557600080fd5b8201836020820111156101b757600080fd5b803590602001918460018302840111640100000000831117156101d957600080fd5b91908080601f016020809104026020016040519081016040528093929190818152602001838380828437600081840152601f19601f820116905080830192505050505050509192919290505050610baa565b005b34801561023957600080fd5b506103946004803603606081101561025057600080fd5b81019080803590602001909291908035906020019064010000000081111561027757600080fd5b82018360208201111561028957600080fd5b803590602001918460018302840111640100000000831117156102ab57600080fd5b91908080601f016020809104026020016040519081016040528093929190818152602001838380828437600081840152601f19601f8201169050808301925050505050505091929192908035906020019064010000000081111561030e57600080fd5b82018360208201111561032057600080fd5b8035906020019184600183028401116401000000008311171561034257600080fd5b91908080601f016020809104026020016040519081016040528093929190818152602001838380828437600081840152601f19601f820116905080830192505050505050509192919290505050610c76565b005b3480156103a257600080fd5b506103cf600480360360208110156103b957600080fd5b8101908080359060200190929190505050610c99565b604051808673ffffffffffffffffffffffffffffffffffffffff1673ffffffffffffffffffffffffffffffffffffffff16815260200180602001806020018060200180602001858103855289818151815260200191508051906020019080838360005b8381101561044d578082015181840152602081019050610432565b50505050905090810190601f16801561047a5780820380516001836020036101000a031916815260200191505b50858103845288818151815260200191508051906020019080838360005b838110156104b3578082015181840152602081019050610498565b50505050905090810190601f1680156104e05780820380516001836020036101000a031916815260200191505b50858103835287818151815260200191508051906020019080838360005b838110156105195780820151818401526020810190506104fe565b50505050905090810190601f1680156105465780820380516001836020036101000a031916815260200191505b50858103825286818151815260200191508051906020019080838360005b8381101561057f578082015181840152602081019050610564565b50505050905090810190601f1680156105ac5780820380516001836020036101000a031916815260200191505b50995050505050505050505060405180910390f35b610873600480360360e08110156105d757600080fd5b8101908080359060200190929190803590602001909291908035906020019064010000000081111561060857600080fd5b82018360208201111561061a57600080fd5b8035906020019184600183028401116401000000008311171561063c57600080fd5b91908080601f016020809104026020016040519081016040528093929190818152602001838380828437600081840152601f19601f8201169050808301925050505050505091929192908035906020019064010000000081111561069f57600080fd5b8201836020820111156106b157600080fd5b803590602001918460018302840111640100000000831117156106d357600080fd5b91908080601f016020809104026020016040519081016040528093929190818152602001838380828437600081840152601f19601f8201169050808301925050505050505091929192908035906020019064010000000081111561073657600080fd5b82018360208201111561074857600080fd5b8035906020019184600183028401116401000000008311171561076a57600080fd5b91908080601f016020809104026020016040519081016040528093929190818152602001838380828437600081840152601f19601f820116905080830192505050505050509192919290803590602001906401000000008111156107cd57600080fd5b8201836020820111156107df57600080fd5b8035906020019184600183028401116401000000008311171561080157600080fd5b91908080601f016020809104026020016040519081016040528093929190818152602001838380828437600081840152601f19601f820116905080830192505050505050509192919290803573ffffffffffffffffffffffffffffffffffffffff169060200190929190505050610fc5565b6040518082815260200191505060405180910390f35b34801561089557600080fd5b506108c2600480360360208110156108ac57600080fd5b810190808035906020019092919050505061133c565b6040518080602001806020018473ffffffffffffffffffffffffffffffffffffffff1673ffffffffffffffffffffffffffffffffffffffff168152602001838103835286818151815260200191508051906020019080838360005b8381101561093857808201518184015260208101905061091d565b50505050905090810190601f1680156109655780820380516001836020036101000a031916815260200191505b50838103825285818151815260200191508051906020019060200280838360005b838110156109a1578082015181840152602081019050610986565b505050509050019550505050505060405180910390f35b3480156109c457600080fd5b506109f1600480360360208110156109db57600080fd5b81019080803590602001909291905050506114c3565b604051808215151515815260200191505060405180910390f35b60006005604051806060016040528085815260200184604051908082528060200260200182016040528015610a4f5781602001602082028038833980820191505090505b5081526020013373ffffffffffffffffffffffffffffffffffffffff16815250908060018154018082558091505090600182039060005260206000209060030201600090919290919091506000820151816000019080519060200190610ab692919061311b565b506020820151816001019080519060200190610ad392919061319b565b5060408201518160020160006101000a81548173ffffffffffffffffffffffffffffffffffffffff021916908373ffffffffffffffffffffffffffffffffffffffff1602179055505050507f1da760a391045f9e73ee6cb692853deb3a02a500a3e38f6d6b4e6f7aa0215f026001600580549050038333604051808481526020018381526020018273ffffffffffffffffffffffffffffffffffffffff1673ffffffffffffffffffffffffffffffffffffffff168152602001935050505060405180910390a1600160058054905003905092915050565b610bb2611a46565b73ffffffffffffffffffffffffffffffffffffffff163373ffffffffffffffffffffffffffffffffffffffff1614610be957600080fd5b600081511115610c7257806008826040518082805190602001908083835b60208310610c2a5780518252602082019150602081019050602083039250610c07565b6001836020036101000a03801982511681845116808217855250505050505090500191505090815260200160405180910390209080519060200190610c709291906131e8565b505b5050565b6000801b600360008060001b815260200190815260200160002081905550505050565b600060608060608060006007600088815260200190815260200160002060000160009054906101000a900473ffffffffffffffffffffffffffffffffffffffff1690506060600760008981526020019081526020016000206001018054600181600116156101000203166002900480601f016020809104026020016040519081016040528092919081815260200182805460018160011615610100020316600290048015610d885780601f10610d5d57610100808354040283529160200191610d88565b820191906000526020600020905b815481529060010190602001808311610d6b57829003601f168201915b505050505090506060600760008a81526020019081526020016000206002018054600181600116156101000203166002900480601f016020809104026020016040519081016040528092919081815260200182805460018160011615610100020316600290048015610e3b5780601f10610e1057610100808354040283529160200191610e3b565b820191906000526020600020905b815481529060010190602001808311610e1e57829003601f168201915b505050505090506060600760008b81526020019081526020016000206003018054600181600116156101000203166002900480601f016020809104026020016040519081016040528092919081815260200182805460018160011615610100020316600290048015610eee5780601f10610ec357610100808354040283529160200191610eee565b820191906000526020600020905b815481529060010190602001808311610ed157829003601f168201915b505050505090506060600760008c81526020019081526020016000206004018054600181600116156101000203166002900480601f016020809104026020016040519081016040528092919081815260200182805460018160011615610100020316600290048015610fa15780601f10610f7657610100808354040283529160200191610fa1565b820191906000526020600020905b815481529060010190602001808311610f8457829003601f168201915b50505050509050848484848499509950995099509950505050505091939590929450565b60008760058181548110610fd557fe5b906000526020600020906003020160020160009054906101000a900473ffffffffffffffffffffffffffffffffffffffff1673ffffffffffffffffffffffffffffffffffffffff163373ffffffffffffffffffffffffffffffffffffffff161461103e57600080fd5b888860006005838154811061104f57fe5b9060005260206000209060030201600101828154811061106b57fe5b90600052602060002001541461108057600080fd5b6110be6040518060400160405280600381526020017f55524c0000000000000000000000000000000000000000000000000000000000815250611d63565b471015611116576040517f08c379a000000000000000000000000000000000000000000000000000000000815260040180806020018281038252602e8152602001806132d3602e913960400191505060405180910390fd5b61115f6040518060400160405280600381526020017f55524c000000000000000000000000000000000000000000000000000000000081525061115a8b8b8b6120f4565b61224c565b506006600081548092919060010191905055506040518060a001604052808673ffffffffffffffffffffffffffffffffffffffff1681526020018a81526020018981526020018881526020018781525060076000600654815260200190815260200160002060008201518160000160006101000a81548173ffffffffffffffffffffffffffffffffffffffff021916908373ffffffffffffffffffffffffffffffffffffffff160217905550602082015181600101908051906020019061122792919061311b565b50604082015181600201908051906020019061124492919061311b565b50606082015181600301908051906020019061126192919061311b565b50608082015181600401908051906020019061127e92919061311b565b5090505060065460058c8154811061129257fe5b90600052602060002090600302016001018b815481106112ae57fe5b90600052602060002001819055506112c58b612792565b1561132957600060058c815481106112d957fe5b906000526020600020906003020160020160006101000a81548173ffffffffffffffffffffffffffffffffffffffff021916908373ffffffffffffffffffffffffffffffffffffffff1602179055505b6006549350505050979650505050505050565b606080600060606005858154811061135057fe5b90600052602060002090600302016000018054600181600116156101000203166002900480601f0160208091040260200160405190810160405280929190818152602001828054600181600116156101000203166002900480156113f55780601f106113ca576101008083540402835291602001916113f5565b820191906000526020600020905b8154815290600101906020018083116113d857829003601f168201915b5050505050905060606005868154811061140b57fe5b906000526020600020906003020160010180548060200260200160405190810160405280929190818152602001828054801561146657602002820191906000526020600020905b815481526020019060010190808311611452575b5050505050905060006005878154811061147c57fe5b906000526020600020906003020160020160009054906101000a900473ffffffffffffffffffffffffffffffffffffffff1690508282829550955095505050509193909250565b60006114cd613268565b600760008481526020019081526020016000206040518060a00160405290816000820160009054906101000a900473ffffffffffffffffffffffffffffffffffffffff1673ffffffffffffffffffffffffffffffffffffffff1673ffffffffffffffffffffffffffffffffffffffff168152602001600182018054600181600116156101000203166002900480601f0160208091040260200160405190810160405280929190818152602001828054600181600116156101000203166002900480156115da5780601f106115af576101008083540402835291602001916115da565b820191906000526020600020905b8154815290600101906020018083116115bd57829003601f168201915b50505050508152602001600282018054600181600116156101000203166002900480601f01602080910402602001604051908101604052809291908181526020018280546001816001161561010002031660029004801561167c5780601f106116515761010080835404028352916020019161167c565b820191906000526020600020905b81548152906001019060200180831161165f57829003601f168201915b50505050508152602001600382018054600181600116156101000203166002900480601f01602080910402602001604051908101604052809291908181526020018280546001816001161561010002031660029004801561171e5780601f106116f35761010080835404028352916020019161171e565b820191906000526020600020905b81548152906001019060200180831161170157829003601f168201915b50505050508152602001600482018054600181600116156101000203166002900480601f0160208091040260200160405190810160405280929190818152602001828054600181600116156101000203166002900480156117c05780601f10611795576101008083540402835291602001916117c0565b820191906000526020600020905b8154815290600101906020018083116117a357829003601f168201915b5050505050815250509050606060405180602001604052806000815250905061190d82608001516118ff6040518060400160405280600181526020017f20000000000000000000000000000000000000000000000000000000000000008152506118f186606001516118e36040518060400160405280600281526020017f2c200000000000000000000000000000000000000000000000000000000000008152506118d58a604001516118c76040518060400160405280600181526020017f20000000000000000000000000000000000000000000000000000000000000008152506118b98e602001518e61286790919063ffffffff16565b61286790919063ffffffff16565b61286790919063ffffffff16565b61286790919063ffffffff16565b61286790919063ffffffff16565b61286790919063ffffffff16565b61286790919063ffffffff16565b905060606008826040518082805190602001908083835b602083106119475780518252602082019150602081019050602083039250611924565b6001836020036101000a03801982511681845116808217855250505050505090500191505090815260200160405180910390208054600181600116156101000203166002900480601f016020809104026020016040519081016040528092919081815260200182805460018160011615610100020316600290048015611a0e5780601f106119e357610100808354040283529160200191611a0e565b820191906000526020600020905b8154815290600101906020018083116119f157829003601f168201915b50505050509050611a2881836129b690919063ffffffff16565b15611a395760019350505050611a41565b600093505050505b919050565b60008073ffffffffffffffffffffffffffffffffffffffff16600160009054906101000a900473ffffffffffffffffffffffffffffffffffffffff1673ffffffffffffffffffffffffffffffffffffffff161480611ace57506000611acc600160009054906101000a900473ffffffffffffffffffffffffffffffffffffffff16612b11565b145b15611adf57611add6000612b1c565b505b600160009054906101000a900473ffffffffffffffffffffffffffffffffffffffff1673ffffffffffffffffffffffffffffffffffffffff166338cc48316040518163ffffffff1660e01b8152600401602060405180830381600087803b158015611b4957600080fd5b505af1158015611b5d573d6000803e3d6000fd5b505050506040513d6020811015611b7357600080fd5b810190808051906020019092919050505073ffffffffffffffffffffffffffffffffffffffff166000809054906101000a900473ffffffffffffffffffffffffffffffffffffffff1673ffffffffffffffffffffffffffffffffffffffff1614611cbc57600160009054906101000a900473ffffffffffffffffffffffffffffffffffffffff1673ffffffffffffffffffffffffffffffffffffffff166338cc48316040518163ffffffff1660e01b8152600401602060405180830381600087803b158015611c4157600080fd5b505af1158015611c55573d6000803e3d6000fd5b505050506040513d6020811015611c6b57600080fd5b81019080805190602001909291905050506000806101000a81548173ffffffffffffffffffffffffffffffffffffffff021916908373ffffffffffffffffffffffffffffffffffffffff1602179055505b6000809054906101000a900473ffffffffffffffffffffffffffffffffffffffff1673ffffffffffffffffffffffffffffffffffffffff1663c281d19e6040518163ffffffff1660e01b815260040160206040518083038186803b158015611d2357600080fd5b505afa158015611d37573d6000803e3d6000fd5b505050506040513d6020811015611d4d57600080fd5b8101908080519060200190929190505050905090565b60008073ffffffffffffffffffffffffffffffffffffffff16600160009054906101000a900473ffffffffffffffffffffffffffffffffffffffff1673ffffffffffffffffffffffffffffffffffffffff161480611deb57506000611de9600160009054906101000a900473ffffffffffffffffffffffffffffffffffffffff16612b11565b145b15611dfc57611dfa6000612b1c565b505b600160009054906101000a900473ffffffffffffffffffffffffffffffffffffffff1673ffffffffffffffffffffffffffffffffffffffff166338cc48316040518163ffffffff1660e01b8152600401602060405180830381600087803b158015611e6657600080fd5b505af1158015611e7a573d6000803e3d6000fd5b505050506040513d6020811015611e9057600080fd5b810190808051906020019092919050505073ffffffffffffffffffffffffffffffffffffffff166000809054906101000a900473ffffffffffffffffffffffffffffffffffffffff1673ffffffffffffffffffffffffffffffffffffffff1614611fd957600160009054906101000a900473ffffffffffffffffffffffffffffffffffffffff1673ffffffffffffffffffffffffffffffffffffffff166338cc48316040518163ffffffff1660e01b8152600401602060405180830381600087803b158015611f5e57600080fd5b505af1158015611f72573d6000803e3d6000fd5b505050506040513d6020811015611f8857600080fd5b81019080805190602001909291905050506000806101000a81548173ffffffffffffffffffffffffffffffffffffffff021916908373ffffffffffffffffffffffffffffffffffffffff1602179055505b6000809054906101000a900473ffffffffffffffffffffffffffffffffffffffff1673ffffffffffffffffffffffffffffffffffffffff1663524f3889836040518263ffffffff1660e01b81526004018080602001828103825283818151815260200191508051906020019080838360005b8381101561206657808201518184015260208101905061204b565b50505050905090810190601f1680156120935780820380516001836020036101000a031916815260200191505b5092505050602060405180830381600087803b1580156120b257600080fd5b505af11580156120c6573d6000803e3d6000fd5b505050506040513d60208110156120dc57600080fd5b81019080805190602001909291905050509050919050565b60608060405180602001604052806000815250905061223f6040518060400160405280601f81526020017f292e726573706f6e73652e646f63735b305d2e77656572676176656e61616d00815250612231856122236040518060400160405280600181526020017f2c000000000000000000000000000000000000000000000000000000000000008152506122158a6122076040518060400160405280600381526020017f25323000000000000000000000000000000000000000000000000000000000008152506121f98f6121eb604051806080016040528060488152602001613301604891398e61286790919063ffffffff16565b61286790919063ffffffff16565b61286790919063ffffffff16565b61286790919063ffffffff16565b61286790919063ffffffff16565b61286790919063ffffffff16565b61286790919063ffffffff16565b9050809150509392505050565b60008073ffffffffffffffffffffffffffffffffffffffff16600160009054906101000a900473ffffffffffffffffffffffffffffffffffffffff1673ffffffffffffffffffffffffffffffffffffffff1614806122d4575060006122d2600160009054906101000a900473ffffffffffffffffffffffffffffffffffffffff16612b11565b145b156122e5576122e36000612b1c565b505b600160009054906101000a900473ffffffffffffffffffffffffffffffffffffffff1673ffffffffffffffffffffffffffffffffffffffff166338cc48316040518163ffffffff1660e01b8152600401602060405180830381600087803b15801561234f57600080fd5b505af1158015612363573d6000803e3d6000fd5b505050506040513d602081101561237957600080fd5b810190808051906020019092919050505073ffffffffffffffffffffffffffffffffffffffff166000809054906101000a900473ffffffffffffffffffffffffffffffffffffffff1673ffffffffffffffffffffffffffffffffffffffff16146124c257600160009054906101000a900473ffffffffffffffffffffffffffffffffffffffff1673ffffffffffffffffffffffffffffffffffffffff166338cc48316040518163ffffffff1660e01b8152600401602060405180830381600087803b15801561244757600080fd5b505af115801561245b573d6000803e3d6000fd5b505050506040513d602081101561247157600080fd5b81019080805190602001909291905050506000806101000a81548173ffffffffffffffffffffffffffffffffffffffff021916908373ffffffffffffffffffffffffffffffffffffffff1602179055505b60008060009054906101000a900473ffffffffffffffffffffffffffffffffffffffff1673ffffffffffffffffffffffffffffffffffffffff1663524f3889856040518263ffffffff1660e01b81526004018080602001828103825283818151815260200191508051906020019080838360005b83811015612551578082015181840152602081019050612536565b50505050905090810190601f16801561257e5780820380516001836020036101000a031916815260200191505b5092505050602060405180830381600087803b15801561259d57600080fd5b505af11580156125b1573d6000803e3d6000fd5b505050506040513d60208110156125c757600080fd5b8101908080519060200190929190505050905062030d403a02670de0b6b3a7640000018111156125fd576000801b91505061278c565b6000809054906101000a900473ffffffffffffffffffffffffffffffffffffffff1673ffffffffffffffffffffffffffffffffffffffff1663adf59f9982600087876040518563ffffffff1660e01b8152600401808481526020018060200180602001838103835285818151815260200191508051906020019080838360005b8381101561269857808201518184015260208101905061267d565b50505050905090810190601f1680156126c55780820380516001836020036101000a031916815260200191505b50838103825284818151815260200191508051906020019080838360005b838110156126fe5780820151818401526020810190506126e3565b50505050905090810190601f16801561272b5780820380516001836020036101000a031916815260200191505b50955050505050506020604051808303818588803b15801561274c57600080fd5b505af1158015612760573d6000803e3d6000fd5b50505050506040513d602081101561277757600080fd5b81019080805190602001909291905050509150505b92915050565b60006060600583815481106127a357fe5b90600052602060002090600302016001018054806020026020016040519081016040528092919081815260200182805480156127fe57602002820191906000526020600020905b8154815260200190600101908083116127ea575b50505050509050600080905060008090505b825181101561284b57600083828151811061282757fe5b6020026020010151111561283e5781806001019250505b8080600101915050612810565b508151811461285b57600061285e565b60015b92505050919050565b6060808390506060839050600081511161287d57fe5b606081518351016040519080825280601f01601f1916602001820160405280156128b65781602001600182028038833980820191505090505b5090506060819050600080600091505b8551821015612934578582815181106128db57fe5b602001015160f81c60f81b8382806001019350815181106128f857fe5b60200101907effffffffffffffffffffffffffffffffffffffffffffffffffffffffffffff1916908160001a90535081806001019250506128c6565b600091505b84518210156129a75784828151811061294e57fe5b602001015160f81c60f81b83828060010193508151811061296b57fe5b60200101907effffffffffffffffffffffffffffffffffffffffffffffffffffffffffffff1916908160001a9053508180600101925050612939565b82965050505050505092915050565b60006060839050606083905080518251146129d657600092505050612b0b565b60008090505b8251811015612b03578181815181106129f157fe5b602001015160f81c60f81b7effffffffffffffffffffffffffffffffffffffffffffffffffffffffffffff1916838281518110612a2a57fe5b602001015160f81c60f81b7effffffffffffffffffffffffffffffffffffffffffffffffffffffffffffff191614158015612ae55750612a7f828281518110612a6f57fe5b602001015160f81c60f81b612b2d565b7effffffffffffffffffffffffffffffffffffffffffffffffffffffffffffff1916612ac0848381518110612ab057fe5b602001015160f81c60f81b612b2d565b7effffffffffffffffffffffffffffffffffffffffffffffffffffffffffffff191614155b15612af65760009350505050612b0b565b80806001019150506129dc565b506001925050505b92915050565b6000813b9050919050565b6000612b26612baa565b9050919050565b6000606160f81b827effffffffffffffffffffffffffffffffffffffffffffffffffffffffffffff191610158015612b8b5750607a60f81b827effffffffffffffffffffffffffffffffffffffffffffffffffffffffffffff191611155b15612ba15760208260f81c0360f81b9050612ba5565b8190505b919050565b600080612bca731d3b2638a7cc9f2cb3d298a3da7a90b67e5506ed612b11565b1115612c6c57731d3b2638a7cc9f2cb3d298a3da7a90b67e5506ed600160006101000a81548173ffffffffffffffffffffffffffffffffffffffff021916908373ffffffffffffffffffffffffffffffffffffffff160217905550612c636040518060400160405280600b81526020017f6574685f6d61696e6e6574000000000000000000000000000000000000000000815250613101565b600190506130fe565b6000612c8b73c03a2615d5efaf5f49f60b7bb6583eaec212fdf1612b11565b1115612d2d5773c03a2615d5efaf5f49f60b7bb6583eaec212fdf1600160006101000a81548173ffffffffffffffffffffffffffffffffffffffff021916908373ffffffffffffffffffffffffffffffffffffffff160217905550612d246040518060400160405280600c81526020017f6574685f726f707374656e330000000000000000000000000000000000000000815250613101565b600190506130fe565b6000612d4c73b7a07bcf2ba2f2703b24c0691b5278999c59ac7e612b11565b1115612dee5773b7a07bcf2ba2f2703b24c0691b5278999c59ac7e600160006101000a81548173ffffffffffffffffffffffffffffffffffffffff021916908373ffffffffffffffffffffffffffffffffffffffff160217905550612de56040518060400160405280600981526020017f6574685f6b6f76616e0000000000000000000000000000000000000000000000815250613101565b600190506130fe565b6000612e0d73146500cfd35b22e4a392fe0adc06de1a1368ed48612b11565b1115612eaf5773146500cfd35b22e4a392fe0adc06de1a1368ed48600160006101000a81548173ffffffffffffffffffffffffffffffffffffffff021916908373ffffffffffffffffffffffffffffffffffffffff160217905550612ea66040518060400160405280600b81526020017f6574685f72696e6b656279000000000000000000000000000000000000000000815250613101565b600190506130fe565b6000612ece73a2998efd205fb9d4b4963afb70778d6354ad3a41612b11565b1115612f705773a2998efd205fb9d4b4963afb70778d6354ad3a41600160006101000a81548173ffffffffffffffffffffffffffffffffffffffff021916908373ffffffffffffffffffffffffffffffffffffffff160217905550612f676040518060400160405280600a81526020017f6574685f676f65726c6900000000000000000000000000000000000000000000815250613101565b600190506130fe565b6000612f8f736f485c8bf6fc43ea212e93bbf8ce046c7f1cb475612b11565b1115612ff357736f485c8bf6fc43ea212e93bbf8ce046c7f1cb475600160006101000a81548173ffffffffffffffffffffffffffffffffffffffff021916908373ffffffffffffffffffffffffffffffffffffffff160217905550600190506130fe565b60006130127320e12a1f859b3feae5fb2a0a32c18f5a65555bbf612b11565b1115613076577320e12a1f859b3feae5fb2a0a32c18f5a65555bbf600160006101000a81548173ffffffffffffffffffffffffffffffffffffffff021916908373ffffffffffffffffffffffffffffffffffffffff160217905550600190506130fe565b60006130957351efaf4c8b3c9afbd5ab9f4bbc82784ab6ef8faa612b11565b11156130f9577351efaf4c8b3c9afbd5ab9f4bbc82784ab6ef8faa600160006101000a81548173ffffffffffffffffffffffffffffffffffffffff021916908373ffffffffffffffffffffffffffffffffffffffff160217905550600190506130fe565b600090505b90565b80600290805190602001906131179291906131e8565b5050565b828054600181600116156101000203166002900490600052602060002090601f016020900481019282601f1061315c57805160ff191683800117855561318a565b8280016001018555821561318a579182015b8281111561318957825182559160200191906001019061316e565b5b50905061319791906132ad565b5090565b8280548282559060005260206000209081019282156131d7579160200282015b828111156131d65782518255916020019190600101906131bb565b5b5090506131e491906132ad565b5090565b828054600181600116156101000203166002900490600052602060002090601f016020900481019282601f1061322957805160ff1916838001178555613257565b82800160010185558215613257579182015b8281111561325657825182559160200191906001019061323b565b5b50905061326491906132ad565b5090565b6040518060a00160405280600073ffffffffffffffffffffffffffffffffffffffff168152602001606081526020016060815260200160608152602001606081525090565b6132cf91905b808211156132cb5760008160009055506001016132b3565b5090565b9056fe706c656173652061646420736f6d652045544820746f20636f76657220666f7220746865207175657279206665656a736f6e2868747470733a2f2f67656f646174612e6e6174696f6e61616c67656f72656769737465722e6e6c2f6c6f63617469657365727665722f76332f737567676573743f713da265627a7a723158204db9e6cc7214a41f5db55a1c904ae5dcb60d306bcf79fe1829f9a4fa39808f4264736f6c63430005110032",
  "source": "//SPDX-License-Identifier: MIT\r\npragma solidity ^0.5.0;\r\n\r\nimport \"./provableAPI.sol\";\r\nimport \"solidity-util/lib/Strings.sol\";\r\nimport \"solidity-util/lib/Integers.sol\";\r\nimport \"solidity-util/lib/Addresses.sol\";\r\n\r\n/// @title A simple registration contract for ownership of a building part\r\n/// @author Bas Bastiaansen\r\n/// @notice This contract is made under education circumstances and is therefore not meant for real-world use\r\ncontract SimpleBuildingOwnership is usingProvable {\r\n\r\n  using Strings for string;\r\n  using Integers for uint;\r\n  using Addresses for address;\r\n  using Addresses for address payable;\r\n  \r\n  event NewBuilding(uint index, uint amountOfParts, address fillPartsAuthority);\r\n\r\n  modifier onlyBuildingAuthority(uint _buildingIndex) {\r\n    require(msg.sender == buildings[_buildingIndex].fillPartsAuthority);\r\n    _;\r\n  }\r\n\r\n  modifier onlyEmptyBuildingPart(uint _buildingIndex, uint _buildingPartIndex) {\r\n    require(buildings[_buildingIndex].buildingPartIds[_buildingPartIndex] == 0);\r\n    _;\r\n  }\r\n\r\n  struct Building {\r\n    string name;\r\n    uint[] buildingPartIds;\r\n    address fillPartsAuthority;\r\n  }\r\n\r\n  struct BuildingPart {\r\n    address owner;\r\n    string streetName;\r\n    string houseNumber;\r\n    string postalCode;\r\n    string city;\r\n  }\r\n\r\n  Building[] private buildings;\r\n  uint private totalBuildingPartsCount;\r\n  mapping(uint => BuildingPart) private buildingParts;\r\n  mapping(string => string) private validatedAddresses;\r\n\r\n  function __callback(bytes32, string memory result) public {\r\n    if (msg.sender != provable_cbAddress()) revert();\r\n\r\n    if (bytes(result).length > 0) {\r\n      validatedAddresses[result] = result;\r\n    }\r\n  }\r\n\r\n  function isAddressValidated(uint _buildingPartId) public view returns (bool) {\r\n\r\n    BuildingPart memory buildingPart = buildingParts[_buildingPartId];\r\n    string memory addressString = \"\";\r\n    addressString = addressString.concat(buildingPart.streetName).concat(\" \").concat(buildingPart.houseNumber).concat(\", \").concat(buildingPart.postalCode).concat(\" \").concat(buildingPart.city);\r\n    string memory validatedAddress = validatedAddresses[addressString];\r\n    \r\n    if (addressString.compareToIgnoreCase(validatedAddress)) {\r\n      return true;\r\n    } else {\r\n      return false;\r\n    }\r\n  }\r\n\r\n  function addBuilding(string memory _name, uint _partsCount) public returns (uint) {\r\n  \tbuildings.push(Building(_name, new uint[](_partsCount), msg.sender));\r\n    emit NewBuilding(buildings.length - 1, _partsCount, msg.sender);\r\n    return buildings.length - 1;\r\n  }\r\n\r\n  function getGeoRegisterUrl(string memory _buildingPartStreet, string memory _buildingPartNumber, \r\n    string memory _buildingPartPostalCode) private pure returns (string memory) {\r\n\r\n    string memory apiUrl = \"\";\r\n    apiUrl = apiUrl.concat(\"json(https://geodata.nationaalgeoregister.nl/locatieserver/v3/suggest?q=\").concat(_buildingPartStreet).concat(\"%20\").concat(_buildingPartNumber).concat(\",\").concat(_buildingPartPostalCode).concat(\").response.docs[0].weergavenaam\");\r\n    return apiUrl;\r\n  }\r\n\r\n  function fillBuildingPart(uint _buildingIndex, uint _buildingPartIndex, string memory _buildingPartStreet, string memory _buildingPartNumber, \r\n    string memory _buildingPartPostalCode, string memory _buildingPartCity, address _buildingPartOwner) public payable \r\n    onlyBuildingAuthority(_buildingIndex) onlyEmptyBuildingPart(_buildingIndex, _buildingPartIndex) returns (uint) {\r\n    \r\n    require (address(this).balance >= provable_getPrice(\"URL\"),\r\n        \"please add some ETH to cover for the query fee\");\r\n    provable_query(\"URL\", getGeoRegisterUrl(_buildingPartStreet, _buildingPartNumber, _buildingPartPostalCode));\r\n\r\n    totalBuildingPartsCount++;\r\n    buildingParts[totalBuildingPartsCount] = BuildingPart(_buildingPartOwner, _buildingPartStreet, _buildingPartNumber, _buildingPartPostalCode, _buildingPartCity);\r\n    buildings[_buildingIndex].buildingPartIds[_buildingPartIndex] = totalBuildingPartsCount;\r\n    if (allBuildingPartsFilled(_buildingIndex)) {\r\n      buildings[_buildingIndex].fillPartsAuthority = address(0);\r\n    }\r\n    return totalBuildingPartsCount;\r\n  }\r\n  \r\n  function getBuilding(uint _index) public view returns(string memory, uint[] memory, address) {\r\n    string memory name = buildings[_index].name;\r\n    uint[] memory buildingPartIds = buildings[_index].buildingPartIds;\r\n    address fillPartsAuthority = buildings[_index].fillPartsAuthority;\r\n    return (name, buildingPartIds, fillPartsAuthority);\r\n  }\r\n\r\n  function getBuildingPart(uint _id) public view returns(address, string memory, string memory, string memory, string memory) {\r\n    address owner = buildingParts[_id].owner;\r\n    string memory streetName = buildingParts[_id].streetName;\r\n    string memory houseNumber = buildingParts[_id].houseNumber;\r\n    string memory postalCode = buildingParts[_id].postalCode;\r\n    string memory city = buildingParts[_id].city;\r\n    return (owner, streetName, houseNumber, postalCode, city);\r\n  }\r\n\r\n  function allBuildingPartsFilled(uint _buildingIndex) private view returns(bool) {\r\n    uint[] memory buildingPartIds = buildings[_buildingIndex].buildingPartIds;\r\n    uint amountOfBuildingPartsFilled = 0;\r\n    for(uint i = 0; i < buildingPartIds.length; i++) {\r\n      if (buildingPartIds[i] > 0) {\r\n        amountOfBuildingPartsFilled++;\r\n      }\r\n    }\r\n    return amountOfBuildingPartsFilled == buildingPartIds.length ? true : false;\r\n  }\r\n}",
  "sourcePath": "E:/School/GitRepos/blockchain-minor-it/BC3_Bas/PD-09/truffle-environment/contracts/SimpleBuildingOwnership.sol",
  "compiler": {
    "name": "solc",
    "version": "0.5.17+commit.d19bba13.Emscripten.clang"
  },
  "schemaVersion": "3.3.2",
  "updatedAt": "2020-12-16T17:01:06.191Z",
  "devdoc": {
    "author": "Bas Bastiaansen",
    "methods": {},
    "title": "A simple registration contract for ownership of a building part"
  },
  "userdoc": {
    "methods": {},
    "notice": "This contract is made under education circumstances and is therefore not meant for real-world use"
  }
}