{
  "contractName": "Integers",
  "abi": [
    {
      "constant": true,
      "inputs": [
        {
          "internalType": "string",
          "name": "_value",
          "type": "string"
        }
      ],
      "name": "parseInt",
      "outputs": [
        {
          "internalType": "uint256",
          "name": "_ret",
          "type": "uint256"
        }
      ],
      "payable": false,
      "stateMutability": "pure",
      "type": "function"
    },
    {
      "constant": true,
      "inputs": [
        {
          "internalType": "uint8",
          "name": "_base",
          "type": "uint8"
        }
      ],
      "name": "toByte",
      "outputs": [
        {
          "internalType": "bytes1",
          "name": "_ret",
          "type": "bytes1"
        }
      ],
      "payable": false,
      "stateMutability": "pure",
      "type": "function"
    }
  ],
  "bytecode": "0x6102a4610026600b82828239805160001a60731461001957fe5b30600052607381538281f3fe73000000000000000000000000000000000000000030146080604052600436106100405760003560e01c806342346c5e14610045578063a86b73f014610114575b600080fd5b6100fe6004803603602081101561005b57600080fd5b810190808035906020019064010000000081111561007857600080fd5b82018360208201111561008a57600080fd5b803590602001918460018302840111640100000000831117156100ac57600080fd5b91908080601f016020809104026020016040519081016040528093929190818152602001838380828437600081840152601f19601f82011690508083019250505050505050919291929050505061019d565b6040518082815260200191505060405180910390f35b6101436004803603602081101561012a57600080fd5b81019080803560ff16906020019092919050505061025c565b60405180827effffffffffffffffffffffffffffffffffffffffffffffffffffffffffffff19167effffffffffffffffffffffffffffffffffffffffffffffffffffffffffffff1916815260200191505060405180910390f35b600060608290506000600190506000600183510390505b600081101580156101c55750825181105b156102545760308382815181106101d857fe5b602001015160f81c60f81b60f81c60ff16101580156102145750603983828151811061020057fe5b602001015160f81c60f81b60f81c60ff1611155b61021a57fe5b81603084838151811061022957fe5b602001015160f81c60f81b60f81c0360ff160284019350600a820291508080600190039150506101b4565b505050919050565b600060015901828153805191505091905056fea265627a7a72315820b827d962e76e54b4a80445c9a1c34bfe420758de98cc2aa7824d0b3e603e3d2b64736f6c63430005110032",
  "source": "pragma solidity ^0.5.0;\r\n\r\n/**\r\n * Integers Library\r\n * \r\n * In summary this is a simple library of integer functions which allow a simple\r\n * conversion to and from strings\r\n * \r\n * @author James Lockhart <james@n3tw0rk.co.uk>\r\n */\r\nlibrary Integers {\r\n    /**\r\n     * Parse Int\r\n     * \r\n     * Converts an ASCII string value into an uint as long as the string \r\n     * its self is a valid unsigned integer\r\n     * \r\n     * @param _value The ASCII string to be converted to an unsigned integer\r\n     * @return uint The unsigned value of the ASCII string\r\n     */\r\n    function parseInt(string memory _value)\r\n        public\r\n        pure\r\n        returns (uint _ret) {\r\n        bytes memory _bytesValue = bytes(_value);\r\n        uint j = 1;\r\n        for(uint i = _bytesValue.length-1; i >= 0 && i < _bytesValue.length; i--) {\r\n            assert(uint8(_bytesValue[i]) >= 48 && uint8(_bytesValue[i]) <= 57);\r\n            _ret += (uint8(_bytesValue[i]) - 48)*j;\r\n            j*=10;\r\n        }\r\n    }\r\n\r\n    /**\r\n     * To String\r\n     * \r\n     * Converts an unsigned integer to the ASCII string equivalent value\r\n     * \r\n     * @param _base The unsigned integer to be converted to a string\r\n     * @return string The resulting ASCII string value\r\n     */\r\n    function toString(uint _base)\r\n        internal\r\n        pure\r\n        returns (string memory) {\r\n        bytes memory _tmp = new bytes(32);\r\n        uint i;\r\n        for(i = 0;_base > 0;i++) {\r\n            _tmp[i] = byte(uint8((_base % 10) + 48));\r\n            _base /= 10;\r\n        }\r\n        bytes memory _real = new bytes(i--);\r\n        for(uint j = 0; j < _real.length; j++) {\r\n            _real[j] = _tmp[i--];\r\n        }\r\n        return string(_real);\r\n    }\r\n\r\n    /**\r\n     * To Byte\r\n     *\r\n     * Convert an 8 bit unsigned integer to a byte\r\n     *\r\n     * @param _base The 8 bit unsigned integer\r\n     * @return byte The byte equivalent\r\n     */\r\n    function toByte(uint8 _base)\r\n        public\r\n        pure\r\n        returns (byte _ret) {\r\n        assembly {\r\n            let m_alloc := add(msize(),0x1)\r\n            mstore8(m_alloc, _base)\r\n            _ret := mload(m_alloc)\r\n        }\r\n    }\r\n\r\n    /**\r\n     * To Bytes\r\n     *\r\n     * Converts an unsigned integer to bytes\r\n     *\r\n     * @param _base The integer to be converted to bytes\r\n     * @return bytes The bytes equivalent \r\n     */\r\n    function toBytes(uint _base)\r\n        internal\r\n        pure\r\n        returns (bytes memory _ret) {\r\n        assembly {\r\n            let m_alloc := add(msize(),0x1)\r\n            _ret := mload(m_alloc)\r\n            mstore(_ret, 0x20)\r\n            mstore(add(_ret, 0x20), _base)\r\n        }\r\n    }\r\n}",
  "sourcePath": "solidity-util/lib/Integers.sol",
  "compiler": {
    "name": "solc",
    "version": "0.5.17+commit.d19bba13.Emscripten.clang"
  },
  "schemaVersion": "3.3.2",
  "updatedAt": "2020-12-15T12:26:55.596Z",
  "devdoc": {
    "author": "James Lockhart <james@n3tw0rk.co.uk>",
    "methods": {
      "parseInt(string)": {
        "params": {
          "_value": "The ASCII string to be converted to an unsigned integer"
        },
        "return": "uint The unsigned value of the ASCII string"
      },
      "toByte(uint8)": {
        "params": {
          "_base": "The 8 bit unsigned integer"
        },
        "return": "byte The byte equivalent"
      }
    }
  },
  "userdoc": {
    "methods": {
      "parseInt(string)": {
        "notice": "Parse Int \r Converts an ASCII string value into an uint as long as the string  its self is a valid unsigned integer \r"
      },
      "toByte(uint8)": {
        "notice": "To Byte      * Convert an 8 bit unsigned integer to a byte "
      }
    },
    "notice": "Integers Library \r In summary this is a simple library of integer functions which allow a simple conversion to and from strings \r"
  }
}