{
  "contractName": "SimpleBuildingOwnership",
  "abi": [
    {
      "anonymous": false,
      "inputs": [
        {
          "indexed": false,
          "internalType": "uint256",
          "name": "index",
          "type": "uint256"
        },
        {
          "indexed": false,
          "internalType": "uint256",
          "name": "amountOfParts",
          "type": "uint256"
        },
        {
          "indexed": false,
          "internalType": "address",
          "name": "fillPartsAuthority",
          "type": "address"
        }
      ],
      "name": "NewBuilding",
      "type": "event"
    },
    {
      "constant": false,
      "inputs": [
        {
          "internalType": "bytes32",
          "name": "",
          "type": "bytes32"
        },
        {
          "internalType": "string",
          "name": "result",
          "type": "string"
        }
      ],
      "name": "__callback",
      "outputs": [],
      "payable": false,
      "stateMutability": "nonpayable",
      "type": "function"
    },
    {
      "constant": false,
      "inputs": [
        {
          "internalType": "bytes32",
          "name": "_myid",
          "type": "bytes32"
        },
        {
          "internalType": "string",
          "name": "_result",
          "type": "string"
        },
        {
          "internalType": "bytes",
          "name": "_proof",
          "type": "bytes"
        }
      ],
      "name": "__callback",
      "outputs": [],
      "payable": false,
      "stateMutability": "nonpayable",
      "type": "function"
    },
    {
      "constant": true,
      "inputs": [
        {
          "internalType": "uint256",
          "name": "_buildingPartId",
          "type": "uint256"
        }
      ],
      "name": "isAddressValidated",
      "outputs": [
        {
          "internalType": "bool",
          "name": "",
          "type": "bool"
        }
      ],
      "payable": false,
      "stateMutability": "view",
      "type": "function"
    },
    {
      "constant": false,
      "inputs": [
        {
          "internalType": "string",
          "name": "_name",
          "type": "string"
        },
        {
          "internalType": "uint256",
          "name": "_partsCount",
          "type": "uint256"
        }
      ],
      "name": "addBuilding",
      "outputs": [
        {
          "internalType": "uint256",
          "name": "",
          "type": "uint256"
        }
      ],
      "payable": false,
      "stateMutability": "nonpayable",
      "type": "function"
    },
    {
      "constant": false,
      "inputs": [
        {
          "internalType": "uint256",
          "name": "_buildingIndex",
          "type": "uint256"
        },
        {
          "internalType": "uint256",
          "name": "_buildingPartIndex",
          "type": "uint256"
        },
        {
          "internalType": "string",
          "name": "_buildingPartStreet",
          "type": "string"
        },
        {
          "internalType": "string",
          "name": "_buildingPartNumber",
          "type": "string"
        },
        {
          "internalType": "string",
          "name": "_buildingPartPostalCode",
          "type": "string"
        },
        {
          "internalType": "address",
          "name": "_buildingPartOwner",
          "type": "address"
        }
      ],
      "name": "fillBuildingPart",
      "outputs": [
        {
          "internalType": "uint256",
          "name": "",
          "type": "uint256"
        }
      ],
      "payable": true,
      "stateMutability": "payable",
      "type": "function"
    },
    {
      "constant": true,
      "inputs": [
        {
          "internalType": "uint256",
          "name": "_index",
          "type": "uint256"
        }
      ],
      "name": "getBuilding",
      "outputs": [
        {
          "internalType": "string",
          "name": "",
          "type": "string"
        },
        {
          "internalType": "uint256[]",
          "name": "",
          "type": "uint256[]"
        },
        {
          "internalType": "address",
          "name": "",
          "type": "address"
        }
      ],
      "payable": false,
      "stateMutability": "view",
      "type": "function"
    },
    {
      "constant": true,
      "inputs": [
        {
          "internalType": "uint256",
          "name": "_id",
          "type": "uint256"
        }
      ],
      "name": "getBuildingPart",
      "outputs": [
        {
          "internalType": "address",
          "name": "",
          "type": "address"
        },
        {
          "internalType": "string",
          "name": "",
          "type": "string"
        },
        {
          "internalType": "string",
          "name": "",
          "type": "string"
        },
        {
          "internalType": "string",
          "name": "",
          "type": "string"
        }
      ],
      "payable": false,
      "stateMutability": "view",
      "type": "function"
    }
  ],
  "bytecode": "0x608060405234801561001057600080fd5b506137d1806100206000396000f3fe6080604052600436106100705760003560e01c8063694ad6431161004e578063694ad643146103965780639d8a3dcd146105555780639dfd8b0214610786578063fa9533bc146108b557610070565b806305cdfebb1461007557806327dc297e1461015b57806338bbfa501461022d575b600080fd5b34801561008157600080fd5b506101456004803603604081101561009857600080fd5b81019080803590602001906401000000008111156100b557600080fd5b8201836020820111156100c757600080fd5b803590602001918460018302840111640100000000831117156100e957600080fd5b91908080601f016020809104026020016040519081016040528093929190818152602001838380828437600081840152601f19601f82011690508083019250505050505050919291929080359060200190929190505050610908565b6040518082815260200191505060405180910390f35b34801561016757600080fd5b5061022b6004803603604081101561017e57600080fd5b8101908080359060200190929190803590602001906401000000008111156101a557600080fd5b8201836020820111156101b757600080fd5b803590602001918460018302840111640100000000831117156101d957600080fd5b91908080601f016020809104026020016040519081016040528093929190818152602001838380828437600081840152601f19601f820116905080830192505050505050509192919290505050610aa7565b005b34801561023957600080fd5b506103946004803603606081101561025057600080fd5b81019080803590602001909291908035906020019064010000000081111561027757600080fd5b82018360208201111561028957600080fd5b803590602001918460018302840111640100000000831117156102ab57600080fd5b91908080601f016020809104026020016040519081016040528093929190818152602001838380828437600081840152601f19601f8201169050808301925050505050505091929192908035906020019064010000000081111561030e57600080fd5b82018360208201111561032057600080fd5b8035906020019184600183028401116401000000008311171561034257600080fd5b91908080601f016020809104026020016040519081016040528093929190818152602001838380828437600081840152601f19601f820116905080830192505050505050509192919290505050610df9565b005b3480156103a257600080fd5b506103cf600480360360208110156103b957600080fd5b8101908080359060200190929190505050610e1c565b604051808573ffffffffffffffffffffffffffffffffffffffff1673ffffffffffffffffffffffffffffffffffffffff168152602001806020018060200180602001848103845287818151815260200191508051906020019080838360005b8381101561044957808201518184015260208101905061042e565b50505050905090810190601f1680156104765780820380516001836020036101000a031916815260200191505b50848103835286818151815260200191508051906020019080838360005b838110156104af578082015181840152602081019050610494565b50505050905090810190601f1680156104dc5780820380516001836020036101000a031916815260200191505b50848103825285818151815260200191508051906020019080838360005b838110156105155780820151818401526020810190506104fa565b50505050905090810190601f1680156105425780820380516001836020036101000a031916815260200191505b5097505050505050505060405180910390f35b610770600480360360c081101561056b57600080fd5b8101908080359060200190929190803590602001909291908035906020019064010000000081111561059c57600080fd5b8201836020820111156105ae57600080fd5b803590602001918460018302840111640100000000831117156105d057600080fd5b91908080601f016020809104026020016040519081016040528093929190818152602001838380828437600081840152601f19601f8201169050808301925050505050505091929192908035906020019064010000000081111561063357600080fd5b82018360208201111561064557600080fd5b8035906020019184600183028401116401000000008311171561066757600080fd5b91908080601f016020809104026020016040519081016040528093929190818152602001838380828437600081840152601f19601f820116905080830192505050505050509192919290803590602001906401000000008111156106ca57600080fd5b8201836020820111156106dc57600080fd5b803590602001918460018302840111640100000000831117156106fe57600080fd5b91908080601f016020809104026020016040519081016040528093929190818152602001838380828437600081840152601f19601f820116905080830192505050505050509192919290803573ffffffffffffffffffffffffffffffffffffffff16906020019092919050505061108e565b6040518082815260200191505060405180910390f35b34801561079257600080fd5b506107bf600480360360208110156107a957600080fd5b81019080803590602001909291905050506113e1565b6040518080602001806020018473ffffffffffffffffffffffffffffffffffffffff1673ffffffffffffffffffffffffffffffffffffffff168152602001838103835286818151815260200191508051906020019080838360005b8381101561083557808201518184015260208101905061081a565b50505050905090810190601f1680156108625780820380516001836020036101000a031916815260200191505b50838103825285818151815260200191508051906020019060200280838360005b8381101561089e578082015181840152602081019050610883565b505050509050019550505050505060405180910390f35b3480156108c157600080fd5b506108ee600480360360208110156108d857600080fd5b8101908080359060200190929190505050611568565b604051808215151515815260200191505060405180910390f35b6000600560405180606001604052808581526020018460405190808252806020026020018201604052801561094c5781602001602082028038833980820191505090505b5081526020013373ffffffffffffffffffffffffffffffffffffffff168152509080600181540180825580915050906001820390600052602060002090600302016000909192909190915060008201518160000190805190602001906109b3929190613555565b5060208201518160010190805190602001906109d09291906135d5565b5060408201518160020160006101000a81548173ffffffffffffffffffffffffffffffffffffffff021916908373ffffffffffffffffffffffffffffffffffffffff1602179055505050507f1da760a391045f9e73ee6cb692853deb3a02a500a3e38f6d6b4e6f7aa0215f026001600580549050038333604051808481526020018381526020018273ffffffffffffffffffffffffffffffffffffffff1673ffffffffffffffffffffffffffffffffffffffff168152602001935050505060405180910390a1600160058054905003905092915050565b610aaf611ab3565b73ffffffffffffffffffffffffffffffffffffffff163373ffffffffffffffffffffffffffffffffffffffff1614610ae657600080fd5b6060610b306040518060400160405280600281526020017f2c2000000000000000000000000000000000000000000000000000000000000081525083611dd090919063ffffffff16565b90506060610b906040518060400160405280600181526020017f200000000000000000000000000000000000000000000000000000000000000081525083600181518110610b7a57fe5b6020026020010151611dd090919063ffffffff16565b90506060610bf06040518060400160405280600181526020017f200000000000000000000000000000000000000000000000000000000000000081525084600081518110610bda57fe5b6020026020010151611dd090919063ffffffff16565b90506060604051806020016040528060008152509050600282511115610cc45760008090505b6001835103811015610c9e57610c8f6040518060400160405280600181526020017f2000000000000000000000000000000000000000000000000000000000000000815250610c81858481518110610c6a57fe5b602002602001015185611fb890919063ffffffff16565b611fb890919063ffffffff16565b91508080600101915050610c16565b50610cbd6001610cad83612107565b038261211890919063ffffffff16565b9050610cdc565b81600081518110610cd157fe5b602002602001015190505b606082600184510381518110610cee57fe5b60200260200101519050606084600081518110610d0757fe5b602002602001015190506040518060600160405280848152602001838152602001828152506008826040518082805190602001908083835b60208310610d625780518252602082019150602081019050602083039250610d3f565b6001836020036101000a03801982511681845116808217855250505050505090500191505090815260200160405180910390206000820151816000019080519060200190610db1929190613555565b506020820151816001019080519060200190610dce929190613555565b506040820151816002019080519060200190610deb929190613555565b509050505050505050505050565b6000801b600360008060001b815260200190815260200160002081905550505050565b6000606080606060006007600087815260200190815260200160002060000160009054906101000a900473ffffffffffffffffffffffffffffffffffffffff1690506060600760008881526020019081526020016000206001018054600181600116156101000203166002900480601f016020809104026020016040519081016040528092919081815260200182805460018160011615610100020316600290048015610f0a5780601f10610edf57610100808354040283529160200191610f0a565b820191906000526020600020905b815481529060010190602001808311610eed57829003601f168201915b505050505090506060600760008981526020019081526020016000206002018054600181600116156101000203166002900480601f016020809104026020016040519081016040528092919081815260200182805460018160011615610100020316600290048015610fbd5780601f10610f9257610100808354040283529160200191610fbd565b820191906000526020600020905b815481529060010190602001808311610fa057829003601f168201915b505050505090506060600760008a81526020019081526020016000206003018054600181600116156101000203166002900480601f0160208091040260200160405190810160405280929190818152602001828054600181600116156101000203166002900480156110705780601f1061104557610100808354040283529160200191611070565b820191906000526020600020905b81548152906001019060200180831161105357829003601f168201915b50505050509050838383839750975097509750505050509193509193565b6000866005818154811061109e57fe5b906000526020600020906003020160020160009054906101000a900473ffffffffffffffffffffffffffffffffffffffff1673ffffffffffffffffffffffffffffffffffffffff163373ffffffffffffffffffffffffffffffffffffffff161461110757600080fd5b878760006005838154811061111857fe5b9060005260206000209060030201600101828154811061113457fe5b90600052602060002001541461114957600080fd5b6111876040518060400160405280600381526020017f55524c000000000000000000000000000000000000000000000000000000000081525061212e565b4710156111df576040517f08c379a000000000000000000000000000000000000000000000000000000000815260040180806020018281038252602e815260200180613727602e913960400191505060405180910390fd5b6112286040518060400160405280600381526020017f55524c00000000000000000000000000000000000000000000000000000000008152506112238a8a8a6124bf565b612617565b5060066000815480929190600101919050555060405180608001604052808673ffffffffffffffffffffffffffffffffffffffff1681526020018981526020018881526020018781525060076000600654815260200190815260200160002060008201518160000160006101000a81548173ffffffffffffffffffffffffffffffffffffffff021916908373ffffffffffffffffffffffffffffffffffffffff16021790555060208201518160010190805190602001906112ea929190613555565b506040820151816002019080519060200190611307929190613555565b506060820151816003019080519060200190611324929190613555565b5090505060065460058b8154811061133857fe5b90600052602060002090600302016001018a8154811061135457fe5b906000526020600020018190555061136b8a612b5d565b156113cf57600060058b8154811061137f57fe5b906000526020600020906003020160020160006101000a81548173ffffffffffffffffffffffffffffffffffffffff021916908373ffffffffffffffffffffffffffffffffffffffff1602179055505b60065493505050509695505050505050565b60608060006060600585815481106113f557fe5b90600052602060002090600302016000018054600181600116156101000203166002900480601f01602080910402602001604051908101604052809291908181526020018280546001816001161561010002031660029004801561149a5780601f1061146f5761010080835404028352916020019161149a565b820191906000526020600020905b81548152906001019060200180831161147d57829003601f168201915b505050505090506060600586815481106114b057fe5b906000526020600020906003020160010180548060200260200160405190810160405280929190818152602001828054801561150b57602002820191906000526020600020905b8154815260200190600101908083116114f7575b5050505050905060006005878154811061152157fe5b906000526020600020906003020160020160009054906101000a900473ffffffffffffffffffffffffffffffffffffffff1690508282829550955095505050509193909250565b6000611572613622565b600760008481526020019081526020016000206040518060800160405290816000820160009054906101000a900473ffffffffffffffffffffffffffffffffffffffff1673ffffffffffffffffffffffffffffffffffffffff1673ffffffffffffffffffffffffffffffffffffffff168152602001600182018054600181600116156101000203166002900480601f01602080910402602001604051908101604052809291908181526020018280546001816001161561010002031660029004801561167f5780601f106116545761010080835404028352916020019161167f565b820191906000526020600020905b81548152906001019060200180831161166257829003601f168201915b50505050508152602001600282018054600181600116156101000203166002900480601f0160208091040260200160405190810160405280929190818152602001828054600181600116156101000203166002900480156117215780601f106116f657610100808354040283529160200191611721565b820191906000526020600020905b81548152906001019060200180831161170457829003601f168201915b50505050508152602001600382018054600181600116156101000203166002900480601f0160208091040260200160405190810160405280929190818152602001828054600181600116156101000203166002900480156117c35780601f10611798576101008083540402835291602001916117c3565b820191906000526020600020905b8154815290600101906020018083116117a657829003601f168201915b50505050508152505090506117d6613660565b600882606001516040518082805190602001908083835b6020831061181057805182526020820191506020810190506020830392506117ed565b6001836020036101000a0380198251168184511680821785525050505050509050019150509081526020016040518091039020604051806060016040529081600082018054600181600116156101000203166002900480601f0160208091040260200160405190810160405280929190818152602001828054600181600116156101000203166002900480156118e75780601f106118bc576101008083540402835291602001916118e7565b820191906000526020600020905b8154815290600101906020018083116118ca57829003601f168201915b50505050508152602001600182018054600181600116156101000203166002900480601f0160208091040260200160405190810160405280929190818152602001828054600181600116156101000203166002900480156119895780601f1061195e57610100808354040283529160200191611989565b820191906000526020600020905b81548152906001019060200180831161196c57829003601f168201915b50505050508152602001600282018054600181600116156101000203166002900480601f016020809104026020016040519081016040528092919081815260200182805460018160011615610100020316600290048015611a2b5780601f10611a0057610100808354040283529160200191611a2b565b820191906000526020600020905b815481529060010190602001808311611a0e57829003601f168201915b5050505050815250509050611a5181600001518360200151612c3290919063ffffffff16565b8015611a745750611a7381602001518360400151612c3290919063ffffffff16565b5b8015611a975750611a9681604001518360600151612c3290919063ffffffff16565b5b15611aa757600192505050611aae565b6000925050505b919050565b60008073ffffffffffffffffffffffffffffffffffffffff16600160009054906101000a900473ffffffffffffffffffffffffffffffffffffffff1673ffffffffffffffffffffffffffffffffffffffff161480611b3b57506000611b39600160009054906101000a900473ffffffffffffffffffffffffffffffffffffffff16612d8d565b145b15611b4c57611b4a6000612d98565b505b600160009054906101000a900473ffffffffffffffffffffffffffffffffffffffff1673ffffffffffffffffffffffffffffffffffffffff166338cc48316040518163ffffffff1660e01b8152600401602060405180830381600087803b158015611bb657600080fd5b505af1158015611bca573d6000803e3d6000fd5b505050506040513d6020811015611be057600080fd5b810190808051906020019092919050505073ffffffffffffffffffffffffffffffffffffffff166000809054906101000a900473ffffffffffffffffffffffffffffffffffffffff1673ffffffffffffffffffffffffffffffffffffffff1614611d2957600160009054906101000a900473ffffffffffffffffffffffffffffffffffffffff1673ffffffffffffffffffffffffffffffffffffffff166338cc48316040518163ffffffff1660e01b8152600401602060405180830381600087803b158015611cae57600080fd5b505af1158015611cc2573d6000803e3d6000fd5b505050506040513d6020811015611cd857600080fd5b81019080805190602001909291905050506000806101000a81548173ffffffffffffffffffffffffffffffffffffffff021916908373ffffffffffffffffffffffffffffffffffffffff1602179055505b6000809054906101000a900473ffffffffffffffffffffffffffffffffffffffff1673ffffffffffffffffffffffffffffffffffffffff1663c281d19e6040518163ffffffff1660e01b815260040160206040518083038186803b158015611d9057600080fd5b505afa158015611da4573d6000803e3d6000fd5b505050506040513d6020811015611dba57600080fd5b8101908080519060200190929190505050905090565b60608083905060008090506000600190505b6001835103821015611e3f576000611dfb878785612da9565b90507fffffffffffffffffffffffffffffffffffffffffffffffffffffffffffffffff811415611e2b5750611e3f565b818060010192505060018101925050611de2565b80604051908082528060200260200182016040528015611e7357816020015b6060815260200190600190039081611e5e5790505b50935060009150600090505b6001835103821015611fac576000611e98878785612da9565b90507fffffffffffffffffffffffffffffffffffffffffffffffffffffffffffffffff811415611ec757835190505b60608382036040519080825280601f01601f191660200182016040528015611efe5781602001600182028038833980820191505090505b5090506060819050600080905060008690505b84811015611f7e57878181518110611f2557fe5b602001015160f81c60f81b838380600101945081518110611f4257fe5b60200101907effffffffffffffffffffffffffffffffffffffffffffffffffffffffffffff1916908160001a9053508080600101915050611f11565b5060018401955081888680600101975081518110611f9857fe5b602002602001018190525050505050611e7f565b83935050505092915050565b60608083905060608390506000815111611fce57fe5b606081518351016040519080825280601f01601f1916602001820160405280156120075781602001600182028038833980820191505090505b5090506060819050600080600091505b85518210156120855785828151811061202c57fe5b602001015160f81c60f81b83828060010193508151811061204957fe5b60200101907effffffffffffffffffffffffffffffffffffffffffffffffffffffffffffff1916908160001a9053508180600101925050612017565b600091505b84518210156120f85784828151811061209f57fe5b602001015160f81c60f81b8382806001019350815181106120bc57fe5b60200101907effffffffffffffffffffffffffffffffffffffffffffffffffffffffffffff1916908160001a905350818060010192505061208a565b82965050505050505092915050565b600060608290508051915050919050565b606061212683836000612e8e565b905092915050565b60008073ffffffffffffffffffffffffffffffffffffffff16600160009054906101000a900473ffffffffffffffffffffffffffffffffffffffff1673ffffffffffffffffffffffffffffffffffffffff1614806121b6575060006121b4600160009054906101000a900473ffffffffffffffffffffffffffffffffffffffff16612d8d565b145b156121c7576121c56000612d98565b505b600160009054906101000a900473ffffffffffffffffffffffffffffffffffffffff1673ffffffffffffffffffffffffffffffffffffffff166338cc48316040518163ffffffff1660e01b8152600401602060405180830381600087803b15801561223157600080fd5b505af1158015612245573d6000803e3d6000fd5b505050506040513d602081101561225b57600080fd5b810190808051906020019092919050505073ffffffffffffffffffffffffffffffffffffffff166000809054906101000a900473ffffffffffffffffffffffffffffffffffffffff1673ffffffffffffffffffffffffffffffffffffffff16146123a457600160009054906101000a900473ffffffffffffffffffffffffffffffffffffffff1673ffffffffffffffffffffffffffffffffffffffff166338cc48316040518163ffffffff1660e01b8152600401602060405180830381600087803b15801561232957600080fd5b505af115801561233d573d6000803e3d6000fd5b505050506040513d602081101561235357600080fd5b81019080805190602001909291905050506000806101000a81548173ffffffffffffffffffffffffffffffffffffffff021916908373ffffffffffffffffffffffffffffffffffffffff1602179055505b6000809054906101000a900473ffffffffffffffffffffffffffffffffffffffff1673ffffffffffffffffffffffffffffffffffffffff1663524f3889836040518263ffffffff1660e01b81526004018080602001828103825283818151815260200191508051906020019080838360005b83811015612431578082015181840152602081019050612416565b50505050905090810190601f16801561245e5780820380516001836020036101000a031916815260200191505b5092505050602060405180830381600087803b15801561247d57600080fd5b505af1158015612491573d6000803e3d6000fd5b505050506040513d60208110156124a757600080fd5b81019080805190602001909291905050509050919050565b60608060405180602001604052806000815250905061260a6040518060400160405280601f81526020017f292e726573706f6e73652e646f63735b305d2e77656572676176656e61616d008152506125fc856125ee6040518060400160405280600181526020017f2c000000000000000000000000000000000000000000000000000000000000008152506125e08a6125d26040518060400160405280600381526020017f25323000000000000000000000000000000000000000000000000000000000008152506125c48f6125b6604051806080016040528060488152602001613755604891398e611fb890919063ffffffff16565b611fb890919063ffffffff16565b611fb890919063ffffffff16565b611fb890919063ffffffff16565b611fb890919063ffffffff16565b611fb890919063ffffffff16565b611fb890919063ffffffff16565b9050809150509392505050565b60008073ffffffffffffffffffffffffffffffffffffffff16600160009054906101000a900473ffffffffffffffffffffffffffffffffffffffff1673ffffffffffffffffffffffffffffffffffffffff16148061269f5750600061269d600160009054906101000a900473ffffffffffffffffffffffffffffffffffffffff16612d8d565b145b156126b0576126ae6000612d98565b505b600160009054906101000a900473ffffffffffffffffffffffffffffffffffffffff1673ffffffffffffffffffffffffffffffffffffffff166338cc48316040518163ffffffff1660e01b8152600401602060405180830381600087803b15801561271a57600080fd5b505af115801561272e573d6000803e3d6000fd5b505050506040513d602081101561274457600080fd5b810190808051906020019092919050505073ffffffffffffffffffffffffffffffffffffffff166000809054906101000a900473ffffffffffffffffffffffffffffffffffffffff1673ffffffffffffffffffffffffffffffffffffffff161461288d57600160009054906101000a900473ffffffffffffffffffffffffffffffffffffffff1673ffffffffffffffffffffffffffffffffffffffff166338cc48316040518163ffffffff1660e01b8152600401602060405180830381600087803b15801561281257600080fd5b505af1158015612826573d6000803e3d6000fd5b505050506040513d602081101561283c57600080fd5b81019080805190602001909291905050506000806101000a81548173ffffffffffffffffffffffffffffffffffffffff021916908373ffffffffffffffffffffffffffffffffffffffff1602179055505b60008060009054906101000a900473ffffffffffffffffffffffffffffffffffffffff1673ffffffffffffffffffffffffffffffffffffffff1663524f3889856040518263ffffffff1660e01b81526004018080602001828103825283818151815260200191508051906020019080838360005b8381101561291c578082015181840152602081019050612901565b50505050905090810190601f1680156129495780820380516001836020036101000a031916815260200191505b5092505050602060405180830381600087803b15801561296857600080fd5b505af115801561297c573d6000803e3d6000fd5b505050506040513d602081101561299257600080fd5b8101908080519060200190929190505050905062030d403a02670de0b6b3a7640000018111156129c8576000801b915050612b57565b6000809054906101000a900473ffffffffffffffffffffffffffffffffffffffff1673ffffffffffffffffffffffffffffffffffffffff1663adf59f9982600087876040518563ffffffff1660e01b8152600401808481526020018060200180602001838103835285818151815260200191508051906020019080838360005b83811015612a63578082015181840152602081019050612a48565b50505050905090810190601f168015612a905780820380516001836020036101000a031916815260200191505b50838103825284818151815260200191508051906020019080838360005b83811015612ac9578082015181840152602081019050612aae565b50505050905090810190601f168015612af65780820380516001836020036101000a031916815260200191505b50955050505050506020604051808303818588803b158015612b1757600080fd5b505af1158015612b2b573d6000803e3d6000fd5b50505050506040513d6020811015612b4257600080fd5b81019080805190602001909291905050509150505b92915050565b6000606060058381548110612b6e57fe5b9060005260206000209060030201600101805480602002602001604051908101604052809291908181526020018280548015612bc957602002820191906000526020600020905b815481526020019060010190808311612bb5575b50505050509050600080905060008090505b8251811015612c16576000838281518110612bf257fe5b60200260200101511115612c095781806001019250505b8080600101915050612bdb565b5081518114612c26576000612c29565b60015b92505050919050565b6000606083905060608390508051825114612c5257600092505050612d87565b60008090505b8251811015612d7f57818181518110612c6d57fe5b602001015160f81c60f81b7effffffffffffffffffffffffffffffffffffffffffffffffffffffffffffff1916838281518110612ca657fe5b602001015160f81c60f81b7effffffffffffffffffffffffffffffffffffffffffffffffffffffffffffff191614158015612d615750612cfb828281518110612ceb57fe5b602001015160f81c60f81b612f67565b7effffffffffffffffffffffffffffffffffffffffffffffffffffffffffffff1916612d3c848381518110612d2c57fe5b602001015160f81c60f81b612f67565b7effffffffffffffffffffffffffffffffffffffffffffffffffffffffffffff191614155b15612d725760009350505050612d87565b8080600101915050612c58565b506001925050505b92915050565b6000813b9050919050565b6000612da2612fe4565b9050919050565b6000606084905060608490506001815114612dc057fe5b60008490505b8251811015612e605781600081518110612ddc57fe5b602001015160f81c60f81b7effffffffffffffffffffffffffffffffffffffffffffffffffffffffffffff1916838281518110612e1557fe5b602001015160f81c60f81b7effffffffffffffffffffffffffffffffffffffffffffffffffffffffffffff19161415612e5357809350505050612e87565b8080600101915050612dc6565b507fffffffffffffffffffffffffffffffffffffffffffffffffffffffffffffffff925050505b9392505050565b60608084905080518484011115612ea157fe5b6060846040519080825280601f01601f191660200182016040528015612ed65781602001600182028038833980820191505090505b5090506060819050600080905060008690505b878701811015612f5857848181518110612eff57fe5b602001015160f81c60f81b838380600101945081518110612f1c57fe5b60200101907effffffffffffffffffffffffffffffffffffffffffffffffffffffffffffff1916908160001a9053508080600101915050612ee9565b50819450505050509392505050565b6000606160f81b827effffffffffffffffffffffffffffffffffffffffffffffffffffffffffffff191610158015612fc55750607a60f81b827effffffffffffffffffffffffffffffffffffffffffffffffffffffffffffff191611155b15612fdb5760208260f81c0360f81b9050612fdf565b8190505b919050565b600080613004731d3b2638a7cc9f2cb3d298a3da7a90b67e5506ed612d8d565b11156130a657731d3b2638a7cc9f2cb3d298a3da7a90b67e5506ed600160006101000a81548173ffffffffffffffffffffffffffffffffffffffff021916908373ffffffffffffffffffffffffffffffffffffffff16021790555061309d6040518060400160405280600b81526020017f6574685f6d61696e6e657400000000000000000000000000000000000000000081525061353b565b60019050613538565b60006130c573c03a2615d5efaf5f49f60b7bb6583eaec212fdf1612d8d565b11156131675773c03a2615d5efaf5f49f60b7bb6583eaec212fdf1600160006101000a81548173ffffffffffffffffffffffffffffffffffffffff021916908373ffffffffffffffffffffffffffffffffffffffff16021790555061315e6040518060400160405280600c81526020017f6574685f726f707374656e33000000000000000000000000000000000000000081525061353b565b60019050613538565b600061318673b7a07bcf2ba2f2703b24c0691b5278999c59ac7e612d8d565b11156132285773b7a07bcf2ba2f2703b24c0691b5278999c59ac7e600160006101000a81548173ffffffffffffffffffffffffffffffffffffffff021916908373ffffffffffffffffffffffffffffffffffffffff16021790555061321f6040518060400160405280600981526020017f6574685f6b6f76616e000000000000000000000000000000000000000000000081525061353b565b60019050613538565b600061324773146500cfd35b22e4a392fe0adc06de1a1368ed48612d8d565b11156132e95773146500cfd35b22e4a392fe0adc06de1a1368ed48600160006101000a81548173ffffffffffffffffffffffffffffffffffffffff021916908373ffffffffffffffffffffffffffffffffffffffff1602179055506132e06040518060400160405280600b81526020017f6574685f72696e6b65627900000000000000000000000000000000000000000081525061353b565b60019050613538565b600061330873a2998efd205fb9d4b4963afb70778d6354ad3a41612d8d565b11156133aa5773a2998efd205fb9d4b4963afb70778d6354ad3a41600160006101000a81548173ffffffffffffffffffffffffffffffffffffffff021916908373ffffffffffffffffffffffffffffffffffffffff1602179055506133a16040518060400160405280600a81526020017f6574685f676f65726c690000000000000000000000000000000000000000000081525061353b565b60019050613538565b60006133c9736f485c8bf6fc43ea212e93bbf8ce046c7f1cb475612d8d565b111561342d57736f485c8bf6fc43ea212e93bbf8ce046c7f1cb475600160006101000a81548173ffffffffffffffffffffffffffffffffffffffff021916908373ffffffffffffffffffffffffffffffffffffffff16021790555060019050613538565b600061344c7320e12a1f859b3feae5fb2a0a32c18f5a65555bbf612d8d565b11156134b0577320e12a1f859b3feae5fb2a0a32c18f5a65555bbf600160006101000a81548173ffffffffffffffffffffffffffffffffffffffff021916908373ffffffffffffffffffffffffffffffffffffffff16021790555060019050613538565b60006134cf7351efaf4c8b3c9afbd5ab9f4bbc82784ab6ef8faa612d8d565b1115613533577351efaf4c8b3c9afbd5ab9f4bbc82784ab6ef8faa600160006101000a81548173ffffffffffffffffffffffffffffffffffffffff021916908373ffffffffffffffffffffffffffffffffffffffff16021790555060019050613538565b600090505b90565b8060029080519060200190613551929190613681565b5050565b828054600181600116156101000203166002900490600052602060002090601f016020900481019282601f1061359657805160ff19168380011785556135c4565b828001600101855582156135c4579182015b828111156135c35782518255916020019190600101906135a8565b5b5090506135d19190613701565b5090565b828054828255906000526020600020908101928215613611579160200282015b828111156136105782518255916020019190600101906135f5565b5b50905061361e9190613701565b5090565b6040518060800160405280600073ffffffffffffffffffffffffffffffffffffffff1681526020016060815260200160608152602001606081525090565b60405180606001604052806060815260200160608152602001606081525090565b828054600181600116156101000203166002900490600052602060002090601f016020900481019282601f106136c257805160ff19168380011785556136f0565b828001600101855582156136f0579182015b828111156136ef5782518255916020019190600101906136d4565b5b5090506136fd9190613701565b5090565b61372391905b8082111561371f576000816000905550600101613707565b5090565b9056fe706c656173652061646420736f6d652045544820746f20636f76657220666f7220746865207175657279206665656a736f6e2868747470733a2f2f67656f646174612e6e6174696f6e61616c67656f72656769737465722e6e6c2f6c6f63617469657365727665722f76332f737567676573743f713da265627a7a72315820b277e5a2f2ba0109a8112687b03bf60cd768393121b443cc519e6cbb4b1cb0b864736f6c63430005110032",
  "source": "//SPDX-License-Identifier: UNLICENSED\r\npragma solidity ^0.5.0;\r\n\r\nimport \"./provableAPI.sol\";\r\nimport \"solidity-util/lib/Strings.sol\";\r\nimport \"solidity-util/lib/Integers.sol\";\r\nimport \"solidity-util/lib/Addresses.sol\";\r\n\r\ncontract SimpleBuildingOwnership is usingProvable {\r\n\r\n  using Strings for string;\r\n  using Integers for uint;\r\n  using Addresses for address;\r\n  using Addresses for address payable;\r\n  \r\n  event NewBuilding(uint index, uint amountOfParts, address fillPartsAuthority);\r\n\r\n  modifier onlyBuildingAuthority(uint _buildingIndex) {\r\n    require(msg.sender == buildings[_buildingIndex].fillPartsAuthority);\r\n    _;\r\n  }\r\n\r\n  modifier onlyEmptyBuildingPart(uint _buildingIndex, uint _buildingPartIndex) {\r\n    require(buildings[_buildingIndex].buildingPartIds[_buildingPartIndex] == 0);\r\n    _;\r\n  }\r\n\r\n  struct Building {\r\n    string name;\r\n    uint[] buildingPartIds;\r\n    address fillPartsAuthority;\r\n  }\r\n\r\n  struct BuildingPart {\r\n    address owner;\r\n    string streetName;\r\n    string houseNumber;\r\n    string postalCode;\r\n  }\r\n\r\n  struct ValidatedAddress {\r\n    string streetName;\r\n    string houseNumber;\r\n    string postalCode;\r\n  }\r\n\r\n  Building[] private buildings;\r\n  uint private totalBuildingPartsCount;\r\n  mapping(uint => BuildingPart) private buildingParts;\r\n  mapping(string => ValidatedAddress) private validatedAddresses;\r\n\r\n  function __callback(bytes32, string memory result) public {\r\n    if (msg.sender != provable_cbAddress()) revert();\r\n    \r\n    string[] memory split1 = result.split(\", \");\r\n    string[] memory split2 = split1[1].split(\" \");\r\n    string[] memory split3 = split1[0].split(\" \");\r\n    string memory streetName = \"\";\r\n    if (split3.length > 2) {\r\n      for(uint i = 0; i < split3.length - 1; i++) {\r\n        streetName = streetName.concat(split3[i]).concat(\" \");\r\n      }\r\n      streetName = streetName.substring(int(streetName.length() - 1));\r\n    } else {\r\n      streetName = split3[0];\r\n    }\r\n    string memory houseNumber = split3[split3.length - 1];\r\n    string memory postalCode = split2[0];\r\n    validatedAddresses[postalCode] = ValidatedAddress(streetName, houseNumber, postalCode);\r\n  }\r\n\r\n  function isAddressValidated(uint _buildingPartId) public view returns (bool) {\r\n\r\n    BuildingPart memory buildingPart = buildingParts[_buildingPartId];\r\n    ValidatedAddress memory validatedAddress = validatedAddresses[buildingPart.postalCode];\r\n    \r\n    if (buildingPart.streetName.compareToIgnoreCase(validatedAddress.streetName)\r\n        && buildingPart.houseNumber.compareToIgnoreCase(validatedAddress.houseNumber)\r\n        && buildingPart.postalCode.compareToIgnoreCase(validatedAddress.postalCode)) {\r\n\r\n      return true;\r\n    } else {\r\n      return false;\r\n    }\r\n  }\r\n\r\n  function addBuilding(string memory _name, uint _partsCount) public returns (uint) {\r\n  \tbuildings.push(Building(_name, new uint[](_partsCount), msg.sender));\r\n    emit NewBuilding(buildings.length - 1, _partsCount, msg.sender);\r\n    return buildings.length - 1;\r\n  }\r\n\r\n  function getGeoRegisterUrl(string memory _buildingPartStreet, string memory _buildingPartNumber, \r\n    string memory _buildingPartPostalCode) private pure returns (string memory) {\r\n\r\n    string memory apiUrl = \"\";\r\n    apiUrl = apiUrl.concat(\"json(https://geodata.nationaalgeoregister.nl/locatieserver/v3/suggest?q=\").concat(_buildingPartStreet).concat(\"%20\").concat(_buildingPartNumber).concat(\",\").concat(_buildingPartPostalCode).concat(\").response.docs[0].weergavenaam\");\r\n    return apiUrl;\r\n  }\r\n\r\n  function fillBuildingPart(uint _buildingIndex, uint _buildingPartIndex, string memory _buildingPartStreet, string memory _buildingPartNumber, \r\n    string memory _buildingPartPostalCode, address _buildingPartOwner) public payable \r\n    onlyBuildingAuthority(_buildingIndex) onlyEmptyBuildingPart(_buildingIndex, _buildingPartIndex) returns (uint) {\r\n    \r\n    require (address(this).balance >= provable_getPrice(\"URL\"),\r\n        \"please add some ETH to cover for the query fee\");\r\n    provable_query(\"URL\", getGeoRegisterUrl(_buildingPartStreet, _buildingPartNumber, _buildingPartPostalCode));\r\n\r\n    totalBuildingPartsCount++;\r\n    buildingParts[totalBuildingPartsCount] = BuildingPart(_buildingPartOwner, _buildingPartStreet, _buildingPartNumber, _buildingPartPostalCode);\r\n    buildings[_buildingIndex].buildingPartIds[_buildingPartIndex] = totalBuildingPartsCount;\r\n    if (allBuildingPartsFilled(_buildingIndex)) {\r\n      buildings[_buildingIndex].fillPartsAuthority = address(0);\r\n    }\r\n    return totalBuildingPartsCount;\r\n  }\r\n  \r\n  function getBuilding(uint _index) public view returns(string memory, uint[] memory, address) {\r\n    string memory name = buildings[_index].name;\r\n    uint[] memory buildingPartIds = buildings[_index].buildingPartIds;\r\n    address fillPartsAuthority = buildings[_index].fillPartsAuthority;\r\n    return (name, buildingPartIds, fillPartsAuthority);\r\n  }\r\n\r\n  function getBuildingPart(uint _id) public view returns(address, string memory, string memory, string memory) {\r\n    address owner = buildingParts[_id].owner;\r\n    string memory streetName = buildingParts[_id].streetName;\r\n    string memory houseNumber = buildingParts[_id].houseNumber;\r\n    string memory postalCode = buildingParts[_id].postalCode;\r\n    return (owner, streetName, houseNumber, postalCode);\r\n  }\r\n\r\n  function allBuildingPartsFilled(uint _buildingIndex) private view returns(bool) {\r\n    uint[] memory buildingPartIds = buildings[_buildingIndex].buildingPartIds;\r\n    uint amountOfBuildingPartsFilled = 0;\r\n    for(uint i = 0; i < buildingPartIds.length; i++) {\r\n      if (buildingPartIds[i] > 0) {\r\n        amountOfBuildingPartsFilled++;\r\n      }\r\n    }\r\n    return amountOfBuildingPartsFilled == buildingPartIds.length ? true : false;\r\n  }\r\n}",
  "sourcePath": "E:/School/GitRepos/blockchain-minor-it/BC3_Bas/PD-08/truffle-environment/contracts/SimpleBuildingOwnership.sol",
  "compiler": {
    "name": "solc",
    "version": "0.5.17+commit.d19bba13.Emscripten.clang"
  },
  "schemaVersion": "3.3.2",
  "updatedAt": "2020-12-15T13:25:48.093Z",
  "networkType": "ethereum",
  "devdoc": {
    "methods": {}
  },
  "userdoc": {
    "methods": {}
  }
}